:020000040800F2
:10000000C80C00209D0300083302000835020008D8
:1000100037020008390200083B0200080000000017
:100020000000000000000000000000003D02000889
:100030003F020008000000004102000843020008DF
:10004000B7030008B7030008B7030008B7030008A8
:10005000B7030008B7030008B7030008B703000898
:10006000B7030008B7030008B7030008B703000888
:10007000B7030008B7030008B7030008B703000878
:10008000B7030008B7030008B7030008B703000868
:10009000B7030008B7030008B7030008B703000858
:1000A000B7030008B7030008B7030008B703000848
:1000B0004D1F0008B7030008F11F0008B703000830
:1000C000B7030008B7030008B7030008B703000828
:1000D000B70300081D1D0008B7030008B120000881
:1000E00023520008B7030008B7030008B70300084D
:1000F000B7030008B7030008B7030008B7030008F8
:10010000B7030008B7030008B7030008B7030008E7
:10011000B7030008B7030008B7030008B7030008D7
:10012000B7030008B7030008B7030008B7030008C7
:1001300000F002F800F03FF80AA090E8000C8244BA
:100140008344AAF10107DA4501D100F034F8AFF297
:10015000090EBAE80F0013F0010F18BFFB1A43F0A5
:1001600001031847FC8400001C850000103A24BFDE
:1001700078C878C1FAD8520724BF30C830C144BF0C
:1001800004680C607047000000230024002500264E
:10019000103A28BF78C1FBD8520728BF30C148BFEA
:1001A0000B607047642905F08582002070471FB5F9
:1001B0001FBD10B510BD05F03DFC1146FFF7F7FF60
:1001C00000F00EF805F05BFC03B4FFF7F2FF03BC90
:1001D00001F04EFD30BF72B662B680F308887047FA
:1001E0004FF4E13001F04EFD022001F051FC01F02E
:1001F000FDFB022001F0E8FC012001F0E5FC02F02B
:100200003BF9002141F61F4001F0D0FD01F040FE16
:1002100001F0A4FE02F090F902F081F804F032FD42
:1002200004F044FD01F01AFE02F050F905F07EF8EA
:10023000FCE77047FEE7FEE7FEE7FEE77047704722
:10024000704770470CB500224C480092019201683B
:1002500041F4803101604FF4A063016801F4003182
:1002600001910099491C0091019911B90099994295
:10027000F3D10168890333D50121019140490A680E
:1002800042F010020A600A6822F003020A600A685B
:1002900042F002020A604168416041684160416881
:1002A00041F480614160416821F47C114160416802
:1002B00041F4E8114160016841F08071016001681A
:1002C0008901FCD5416821F003014160416841F09A
:1002D000020141604168C1F381010229FAD10CBDDC
:1002E00001920CBD254810B5016841F00101016083
:1002F0004168244A114041600168234A114001606D
:10030000016821F480210160416821F4FE0141600F
:100310004FF41F018160FFF795FF1C494FF000600B
:10032000086010BD154A10B55068194B10F00C014B
:10033000184803D0042901D0082901D0036012E035
:100340005168536801F470114FF0020413F4803FB8
:1003500004EB914102D053689B0301D50E4B00E0A2
:100360000B4B5943016051680A4AC1F30311121D36
:10037000515C0268CA40026010BD000000100240DB
:10038000002002400000FFF8FFFFF6FE08ED00E04D
:1003900000127A001400002000093D00094880473F
:1003A00009480047FEE7FEE7FEE7FEE7FEE7FEE757
:1003B000FEE7FEE7FEE7FEE704480549054A064B6F
:1003C00070470000E502000831010008C80600205F
:1003D000C80C0020C8080020C8080020284908438D
:1003E00028490860704730B50F23C278017801258D
:1003F000F2B1244A126801F1E02102F4E062C2F590
:10040000E062120AC2F10404D3404278A240847828
:100410001C401443220181F80024007800F01F01E1
:100420008D404009800000F1E020C0F8005130BD4F
:1004300001F01F0085404809800000F1E020C0F86D
:10044000805130BD104A114001430E48001F016029
:1004500070470C4A121D0029116801D0014300E0C9
:100460008143116070474FF0E0210428086903D0F0
:1004700020F004000861704740F00400FAE7000033
:100480000000FA050CED00E080FFFF1F10B5012011
:1004900000F075FBBDE81040002000F070BB1F4964
:1004A000086070471D49091F086070471B49843167
:1004B000086070471A4A118821F460710143118065
:1004C0007047174A118821F07F010143118070475E
:1004D000134A08B52C3A10440090016008BD104939
:1004E00008B52C3908440090008808BD0B489C30A2
:1004F0000068C0B270470A480830018841F0010125
:10050000018070470548A0300068C0B270470448B9
:100510000830018841F002010180704704860D42D5
:100520002C6C0040374900200860091D0860091D37
:100530000860091D0860334933481431086070476A
:1005400030B5304A8379016853B313688B43136025
:10055000111D0B680468A3430B60017911440B68FB
:10056000046823430B60274B083319680468A143D0
:1005700019601C1D21680568A94321604179102973
:1005800005D011440A68006802430A6030BD19684A
:10059000026811431960216800680143216030BD81
:1005A0000079104402688A43026030BD0021016076
:1005B00001710C22427181717047124910310A6831
:1005C00002430A60704701460E4A00201432126846
:1005D0000A4200D0012070470A4914310860704770
:1005E000084A014600201268064B0A4014331B6873
:1005F0000B4202D0002A00D001207047014914317B
:100600000860704700040140FFFF0F008F4910B5DC
:10061000884206D10121042000F09FFA0021042025
:100620003BE08B49884206D10121082000F095FA71
:100630000021082031E08749884206D1012110209D
:1006400000F08BFA0021102027E08349884206D170
:100650000121202000F081FA002120201DE07F49A7
:10066000884206D10121402000F077FA0021402085
:1006700013E07B49884206D10121802000F06DFA09
:100680000021802009E0774988420AD184150121A0
:10069000204600F062FA00212046BDE8104000F03C
:1006A0005CBA10BD10B50121084600F056FA0021D1
:1006B000BDE81040012000F050BAF0B5CC7800221F
:1006C00004F00F03E40601D58C7823430C784FF037
:1006D0000F0C14F0FF0F4FF0010E1BD005680E88B1
:1006E0000EFA02F42640A64210D196000CFA06F744
:1006F00025EA070703FA06F5CE783D43282E02D0F7
:10070000482E02D002E0446100E00461521C082A35
:10071000E5D305600A88FF2A1CD94468002202F14B
:1007200008060EFA06F50E882E40AE420ED196004F
:100730000CFA06F7BC4303FA06F7CE783C43282EA2
:1007400000D14561CE78482E00D10561521C082A9F
:10075000E5D34460F0BD4FF6FF7101800221817046
:100760000421C17070470246002092680A4200D0FE
:1007700001207047806880B2704702460020D2682E
:100780000A4200D001207047C06880B27047016102
:100790007047416170470AB101617047416170471C
:1007A000C160704741F480328261816182618169F8
:1007B000806970472C4B10B51A684FF68074224040
:1007C00042EA00100843186010BD2849C86170470C
:1007D000F0B5254C002801DAE36900E06368450DB7
:1007E0002E0185B2C0F30157B540C0F30342032F79
:1007F00005D0C6020AD503269640B34307E023F08E
:100800007062636823F07063636002E0AB4343F09F
:10081000706201B12A43002801DAE261F0BD626032
:10082000F0BD10B58A0721F003040F49120F2144CF
:100830000F238C6893409C438C608B6890400343EB
:100840008B6010BD0949C1F8DC0070470008014009
:10085000000C01400010014000140140001801404C
:10086000001C014000200140000001400000204227
:1008700010B501210C07204600F078F92046BDE8AC
:100880001040002100F072B92149086270472049E8
:10089000086170471F4A116821F0E00101431160AF
:1008A00070471B49C1F8A00070471A4B1A6822F024
:1008B000030202431A601848026842F00402026010
:1008C000012905D020BF016821F0040101607047B3
:1008D00030BFF8E70F48016841F00401016001688A
:1008E00041F0020101600C48016841F0040101601F
:1008F00030BF7047074A0146002052680A4200D0C4
:100900000120704703490A6842EA80000860704786
:1009100000000E420070004010ED00E0A5480168A4
:1009200041F0010101604168A34A11404160016842
:10093000A24A11400160016821F4802101604168F0
:1009400021F4FE0141604FF41F0181607047994915
:100950000A6822F480320A600A6822F480220A605F
:10096000B0F5803F07D0B0F5802F03D1086840F480
:10097000A02008607047086840F48030F9E703461B
:10098000002059098B4A01290AD002290AD0516A4C
:1009900003F01F02012393400B4200D00120704757
:1009A0001168F5E7116AF3E718B500204FF4A06469
:1009B00000903120FFF7E3FF0099491C0091A1420C
:1009C00001D00028F5D03120FFF7D9FF002800D052
:1009D000012018BD774A116821F0F80141EAC000F2
:1009E00010607047764908607047724B5A68084338
:1009F00022F47C12104358607047714908667047B2
:100A00006C4A516821F00301014351607047694805
:100A1000406800F00C007047664A516821F0F00110
:100A2000014351607047634A516821F4E06101431A
:100A3000516070475F4A516821F4605141EAC0003B
:100A4000506070475B4A0029517A01D0014300E0B1
:100A50008143517270475A49C1F8D8007047554ACE
:100A6000516821F4404101435160704751490022CF
:100A700081F8202081F82020012802D0042802D10A
:100A8000052081F8200070474E49086070474949A9
:100A90000A6A02430A6270474A494439086070474B
:100AA00030B5444A5168484B11F00C0103D0042979
:100AB00001D0082901D0036012E05168536801F4A5
:100AC00070114FF0020413F4803F04EB914102D007
:100AD00053689B0301D53D4B00E03B4B59430160FC
:100AE00051680F2303EA1111394B5C5C0168E14046
:100AF00041605468072505EA14241C5D21FA04F4BA
:100B00008460546805EAD4241B5DD940C1605268F2
:100B1000032303EA92322E4B1B1F9A5CB1FBF2F1C6
:100B2000016130BD234A0029516901D0014300E031
:100B30008143516170471F4A0029916901D00143E7
:100B400000E08143916170471A4A0029D16901D0C0
:100B5000014300E08143D1617047164A0029D16802
:100B600001D0014300E08143D1607047114A002960
:100B7000116901D0014300E08143116170471149BF
:100B80004039086070470E49C86470470949C87108
:100B900070470848416A41F0807141627047054AD8
:100BA0000146002092680A4200D0012070470149A6
:100BB00088727047001002400000FFF8FFFFF6FE49
:100BC000000042428004424200127A0000093D00C7
:100BD0002C000020F94910B5884202D10121C4142B
:100BE00086E0B0F1804F09D0F54988420DD101214E
:100BF0000220FFF7BBFF0021022064E0012108462C
:100C0000FFF7B4FF002101205DE0EE49884206D1E4
:100C100001210420FFF7AAFF0021042053E0EA4944
:100C2000884206D101210820FFF7A0FF00210820FB
:100C300049E0E649884206D101211020FFF796FFDE
:100C4000002110203FE0E249884206D10121202006
:100C5000FFF78CFF0021202035E0DE49884202D1D9
:100C60000121441444E0DC49884202D10121CC0432
:100C70003EE0DA49884202D101210C0538E0D8492A
:100C8000884202D101214C0532E0D649884206D182
:100C900001214020FFF76AFF0021402013E0D249E4
:100CA000884206D101218020FFF760FF00218020CB
:100CB00009E0CE4988420AD1841501212046FFF778
:100CC00055FF00212046BDE81040FFF74FBFC8493F
:100CD000884202D101210C040AE0C649884202D1AF
:100CE00001214C0404E0C44988420AD101218C044A
:100CF0002046FFF732FF2046BDE810400021FFF7F5
:100D00002CBF10BD30B50288AC4CB24DA0420DD006
:100D1000A8420BD0B0F1804F08D0A94B984205D023
:100D2000A84B984202D0A84B984203D122F07003FE
:100D30004A881A43A54B984206D0A54B984203D047
:100D400022F44073CA881A4302808A8882850A88FE
:100D50000285A0420AD0A84208D0A54A904205D0F8
:100D6000A44A904202D0A44A904201D1097A018655
:100D70000121818230BD30B5028C22F00102028453
:100D8000028C8388048B22F0020224F073050C8805
:100D90002C430D8915434A882A43884DA8420BD01D
:100DA0008C4DA84208D0924DA84205D0914DA84242
:100DB00002D0914DA8420DD122F008054A8923F4B2
:100DC00040732A4322F004058A882A438D891D43F3
:100DD000CB892B4383800483C9888186028430BDFC
:100DE00070B5028C22F010020284028C8388048B7E
:100DF0000D8824F4E6464FF6FF7404EA05253543D2
:100E00000E8922F0200204EA061616434A8804EAF4
:100E100002123243694EB04202D06E4EB04215D13A
:100E200022F080064A8923F4406304EA0212324326
:100E300022F040068A8804EA021232438E8904EACC
:100E400086061E43CB8904EA8303334383800583EC
:100E5000C9880187028470BD70B5028C22F480724B
:100E60000284028C8388848B0D8824F073042543CC
:100E70000E894FF6FF7422F4007204EA0626164328
:100E80004A8804EA022232434C4EB04202D0514E0C
:100E9000B04215D122F400664A8923F4405304EA93
:100EA0000222324322F480668A8804EA0222324314
:100EB0008E8904EA06161E43CB8904EA03133343E2
:100EC00083808583C9888187028470BD70B5028C58
:100ED00022F480520284058C8288838B0C8823F450
:100EE000E6464FF6FF7303EA0424344325F4005624
:100EF0000D8903EA053535434E8803EA06362E434D
:100F00002E4DA84202D0334DA84205D122F480458F
:100F10008A8903EA82122A4382808483C988A0F8DE
:100F20004010068470BD828B22F440628283828BE3
:100F30004FF6FF7303EA01210A4382837047828BD5
:100F400022F00C028283828B0A4382837047028BD9
:100F500022F440620283028B4FF6FF7303EA012101
:100F60000A4302837047F0B5048C24F01004048413
:100F7000078B048C4FF6FF7527F4734705EA03339C
:100F80003B4305EA02221A430C4B05EA011698423C
:100F90000ED0104B98420BD0B0F1804F08D0084BC8
:100FA000984205D0074B984202D0074B984225D172
:100FB00024F02001314341F0100124E0002C0140D5
:100FC0000004004000080040000C004000100040F9
:100FD0000014004000340140004C0140005001402A
:100FE0000054014000180040001C00400020004058
:100FF00000400140004401400048014024F0A003AB
:101000000B4343F0100102830184F0BD028B22F0F8
:101010000C020283028B0A430283704770B5048C72
:1010200024F001040484058B048C4FF6FF7606EA55
:101030000313134325F0F305F84A2B4390420ED0D7
:10104000F74A90420BD0B0F1804F08D0F54A904259
:1010500005D0F54A904202D0F44A904202D124F0E1
:10106000020201E024F00A020A4342F00101038374
:10107000018470BD2DE9F84F0D4604460888E74FFE
:10108000DFF89CC3DFF89C83DFF89C934988AA882B
:101090002B894FF0804A48B304282FD04FF6FF76B3
:1010A0000828934632D0208C9E4620F4805020841D
:1010B000A38B208C06EA0132009223F4734306EAE4
:1010C0000B221A4306EA0E331343BC420AD064458E
:1010D00008D0544506D0444504D04C4502D0D34AEC
:1010E000944242D120F40050009940E02046FFF79E
:1010F00095FFE9882046BDE8F84F87E72046FFF7CF
:1011000032FFE9882046BDE8F84F20E7208C20F424
:1011100080702084B4F81CE0208C06EA031306EAF1
:1011200001222EF0F30E43EA0B0343EA0E03009272
:10113000BC420AD0644508D0544506D0444504D08A
:101140004C4502D0B94A944203D120F40070009972
:1011500001E020F42060084340F48070A3832084E1
:10116000E9882046BDE8F84FE9E620F4024008434C
:1011700040F48050A3832084E9882046BDE8F84FDE
:10118000D1E62DE9F0410C460026498807460125A5
:1011900001B90226A288012A00D1022520882389CC
:1011A0000028384610D0FFF7DEFEE1883846FFF70A
:1011B000CEFE23892A4631463846FFF72FFFE188C5
:1011C0003846BDE8F04121E7FFF728FFE1883846BF
:1011D000FFF71CFF23892A4631463846FFF7C3FE36
:1011E000E1883846BDE8F041B1E610B50A884B8881
:1011F000CC881A438B8823431A430B891A434B89A3
:1012000089891A430A43A0F8442010BD4FF6FF71A4
:10121000818000210180C1804180017270470021DE
:10122000018041808180C180018141818181C181B2
:10123000704700210180418001228280C1800181AC
:1012400070470021018041808180C18001814181FE
:10125000818170470029018802D041F0010101E03D
:1012600021F0010101807047002930F8441F02D0AD
:1012700041F4004101E0C1F30E0101807047002AF2
:10128000828901D00A4300E08A43828170478182CB
:1012900070471143A0F848107047002A828901D096
:1012A0000A4300E08A4382817047018921F00701E7
:1012B00001817047028922F070020A43028170475F
:1012C00000B50346FFF7F6FF188940F007001881C4
:1012D00000BD70B516460D46602904464FF0010268
:1012E00031460AD0FFF79AFE29462046FFF7E2FF73
:1012F000208940F00700208170BDFFF734FEF3E73E
:1013000030B504894FF6FF7505EA03231343E4B2B1
:101310000B432343038130BD10B50446FFF7F0FFB4
:10132000208940F07700208110BD10B50446FFF7FA
:10133000E7FF208940F48040208110BD0185828232
:101340007047028822F070020A430280704770B52D
:101350000589048B068C25F007050D434FF6FC41EB
:101360000C4040F201110C434FF6FF7101EA0311EA
:1013700026F022061143314305810483018470BDA8
:10138000028B22F070020A4302837047028B4FF6F1
:10139000FF7322F4E04203EA012111430183704705
:1013A000828B22F070020A4382837047828B4FF651
:1013B000FF7322F4E04203EA012111438183704765
:1013C0000029018802D041F0800101E021F0800174
:1013D000018070470029818802D041F0040101E0BA
:1013E00021F00401818070470029818802D041F0FA
:1013F000080101E021F008018180704700298188FF
:1014000002D041F0010101E021F00101818070472B
:10141000028B22F008020A4302837047002C01402D
:10142000003401400004004000080040000C00406F
:10143000028B4FF6FF7322F4006203EA012111438D
:101440000183EAE7828B22F008020A438283E4E701
:10145000828B4FF6FF7322F4006203EA01211143ED
:101460008183DAE7028B22F004020A430283D4E785
:10147000028B4FF6FF7322F4806203EA01211143CD
:101480000183CAE7828B22F004020A438283C4E705
:10149000828B4FF6FF7322F4806203EA012111432D
:1014A0008183BAE7028B22F080020A430283B4E709
:1014B000028B4FF6FF73C2F30E0203EA01211143C0
:1014C0000183AAE7828B22F080020A438283A4E789
:1014D000828B4FF6FF73C2F30E0203EA0121114320
:1014E00081839AE7028C22F002020A43028494E785
:1014F000028C22F008020A4302848EE7028C4FF627
:10150000FF7322F0200203EA01111143018484E7F2
:10151000028C4FF6FF7322F0800203EA011111439F
:1015200001847AE7028C4FF6FF7322F4007203EA1B
:1015300001211143018470E7028C4FF6FF7322F4FE
:10154000006203EA01211143018466E7028C4FF631
:10155000FF7322F4005203EA0131114301845CE776
:1015600010B50123048C8B409C430484038C8A4077
:101570001343038410BD10B50423048C8B409C439B
:101580000484038C8A401343038410BD30B50124C6
:10159000058C00F118038C40A543058489B1082906
:1015A0000FD0091FC1F34E001844016821F4E04137
:1015B000016001684FF6FF7303EA022211430160E4
:1015C00030BD03EB5100016821F07001016001683A
:1015D000F4E70029018802D041F0020101E021F086
:1015E0000201018019E70029018802D041F00401BD
:1015F00001E021F0040101800FE70029818802D079
:1016000041F0800101E021F08001818005E702883E
:1016100022F00802028002880A430280FDE68288E6
:1016200022F07002828082880A438280F5E6028975
:1016300022F00702028102890A430281EDE6028953
:1016400022F08002028102890A430281E5E6818458
:10165000E3E68185E1E68186DFE60187DDE68187D5
:10166000DBE6A0F84010D8E6028822F4407202803F
:1016700002880A430280D0E6808ECEE6008FCCE658
:10168000808FCAE6B0F84000C7E6808CC5E6008DC2
:10169000C3E602460020128A0A4200D00120BCE6BE
:1016A000C9430182B9E602460020138A92890B429F
:1016B00002EA010202D0002A00D00120ADE6C943AF
:1016C0000182AAE6C44910B588420AD101218C03DF
:1016D0002046FFF742FA2046BDE810400021FFF700
:1016E0003CBABE49884202D101214C0410E0BC49F9
:1016F000884202D101218C040AE0BA49884202D111
:101700000121CC0404E0B84988420AD101210C052A
:101710002046FFF72BFA2046BDE810400021FFF7D6
:1017200025BA10BD30B50446008A85B00D464CF68A
:10173000FF710840E98801432182A0894EF6F31128
:101740000840A9882A8911436A8902431143A1816B
:10175000A08A4FF6FF410840A9890143A18268464B
:10176000FFF79EF99C48844201D1039800E002985B
:10177000A189090400EBC00101EB0010296801D523
:10178000490000E08900B0FBF1F06422B0FBF2F107
:1017900009010B096FF018056B4300EB8300A38967
:1017A0001D044FF0320306D503EBC000B0FBF2F08E
:1017B00000F0070005E003EB0010B0FBF2F000F0D2
:1017C0000F000843208105B030BD4FF41651016071
:1017D00000218180C18001810C224281818170477A
:1017E00010B5028A4FF2FF031A400B884C8823433E
:1017F0008C88C9880C4323431343038210BD002106
:10180000018041808180C18070470029818902D098
:1018100041F4005101E021F400518181704710B57D
:10182000C1F3421301F01F040121A140012B07D095
:10183000022B07D01430002A026805D00A4304E0C6
:101840000C30F8E71030F6E78A43026010BD002A3A
:10185000828A01D00A4300E08A4382827047028A6A
:1018600022F00F020282028A0A43028270478289B2
:1018700022F40062828182890A43828170470029B2
:10188000818902D041F0020101E021F00201818151
:101890007047028A22F020020282028A0A430282F0
:1018A00070470029018A02D041F4804101E021F40F
:1018B000804101827047C1F30801818070478088B0
:1018C000C0F308007047818941F0010181817047B0
:1018D000028BD2B20283028B42EA0121018370475C
:1018E000028B02F47F420283028B0A430283704719
:1018F0000029818A02D041F0200101E021F020017D
:10190000818270470029818A02D041F0100101E0F4
:1019100021F01001818270470029818A02D041F0B4
:10192000080101E021F008018182704700298189C6
:1019300002D041F4004101E0C1F30E018181704702
:101940000029818A02D041F4006101E021F40061A4
:1019500081827047828A22F004028282828A0A434C
:10196000828270470029818A02D041F0020101E0A1
:1019700021F00201818270470246002012880A424B
:1019800000D001207047C9430180704770B501F055
:101990001F0501260024C1F3421306FA05F2012BAC
:1019A0000FD0022B0FD0838A4FEA112100881342F7
:1019B00006FA01F600EA060001D000B10124204633
:1019C00070BD8389F0E7038AEEE70A0A012191409E
:1019D000C9430180704700000038014000440040C6
:1019E00000480040004C00400050004010B56FF02F
:1019F0000400FEF738FD204820490068B0FBF1F0F4
:101A00001F49C0B200EB40020870C2EBC0104FF695
:101A1000FF7202EAC000488010BD194909784843A6
:101A20004FF0E021486100238B61086940F001001C
:101A300008610869C20701D0C003FAD5086920F01F
:101A4000010008618B6170470D49498848434FF098
:101A5000E021486100238B61086940F001000861C2
:101A60000869C20701D0C003FAD5086920F0010057
:101A700008618B61704700001400002000127A009A
:101A80003C000020704A11400143704801607047DB
:101A900007216E4A8143121D10684FF6FF0318405C
:101AA0006B4B184340EA012010607047F0B50546C3
:101AB00014460F461E461846FFF7EAFFC6F104001B
:101AC00085400F22F2403A402A436009800000F12D
:101AD000E020D0F8001104F01F050123AB401943AA
:101AE000C0F8001104F1E02494F8000440EA021068
:101AF00084F80004F0BD70B5564D8B088C07AE69B4
:101B0000240F46F00106AE619D00534B2B449E68A6
:101B10000F25A540AE439E609D68A04005439D6093
:101B20004E4B1C680120884004431C60D10704D040
:101B30004A490C310B6803430B60910704D5474AAF
:101B4000083211680143116070BD424800210161F3
:101B5000C160142242618161C161026842F00102E8
:101B6000026042683E4B1A40426002683D4B1A4098
:101B70000260026822F480220260426822F4FE02BF
:101B800042608160C0037DE730480830016841F061
:101B9000040101602F48C16941F08051C1613248A0
:101BA000416841F480714160016841F004010160C5
:101BB000016841F002010160FEF70CBB2448234993
:101BC000001D091D0860704741062248826942F0E5
:101BD000010282612048426822F0E062426042686D
:101BE0000A434260704730B505460024FFF7ADFF59
:101BF0001849086840F4803008600868400CFCD040
:101C00004FF480604860AD1E4A68E8B242EA804006
:101C10004860486840F4803048601448026842F0E8
:101C200032020260086840F0807008600868400E68
:101C3000FCD0486840F00200486002E04868C0F309
:101C40008104022CFAD130BD80FFFF1F08ED00E0B7
:101C50000000FA05001002400000014000040140AD
:101C60000000FFF8FFFFF6FE007000400020024079
:101C7000704740490A885206FCD53E4AC1B2121D3F
:101C80001180704730B5054687B0012144F2040049
:101C9000FEF751FF4FF40070ADF8100003208DF8EF
:101CA00012001820344C8DF8130004A92046FEF7CA
:101CB00004FD2015ADF8100004208DF8130004A9D0
:101CC0002046FEF7FAFC25208DF8140000248DF83C
:101CD00015408DF8164001208DF8170005A8FEF775
:101CE00082FBADF80440ADF80640ADF80840ADF811
:101CF0000C400C201F4CADF80A00009569462046A8
:101D0000FFF710FD012240F225512046FFF787FD25
:101D100001212046FFF779FD07B030BD70B5154CA5
:101D200040F225512046FFF731FE00280ED0204614
:101D3000FFF7C5FD114AC1B21088030406D444045C
:101D40004FF0000306D50A2901D0138070BD40F47E
:101D500000400DE00D2909D0C0F30D04084D401CD2
:101D600080B229551080C728EFD870BD40F480405C
:101D7000108070BD00380140000801404000002084
:101D8000FC00002008B501210820FEF7D4FE4FF426
:101D90007040ADF8000010208DF8030003208DF88E
:101DA000020069462A48FEF788FC08BD30B589B0B4
:101DB0000D460446FFF7E6FF0121C802FEF7BBFE11
:101DC00001210420FEF7B7FE4FF41062ADF81C208D
:101DD00018218DF81F1003208DF81E0007A91D483B
:101DE000FEF76BFCADF81440ADF8105000241A4D0E
:101DF000ADF81640ADF8124004A92846FEF782FF60
:101E00006020ADF800000120ADF80200ADF80640FA
:101E1000ADF8084069462846FEF7ADFF69462846FA
:101E2000FFF754F801212846FFF71EFA082128463B
:101E3000FFF7EEFA08212846FFF70AFB01212846A2
:101E4000FFF7BEFA01212846FFF704FA09B030BDBA
:101E5000000C014000080140002C014038B5012170
:101E60000420FEF768FE5020ADF8000010208DF829
:101E700003000320054C8DF8020069462046FEF75A
:101E80001CFC10212046FEF782FC38BD00080140F2
:101E900010B5012188B00846FEF756FE0121042046
:101EA000FEF749FE0320ADF8180004208DF81B0052
:101EB00006A95348FEF701FC4FF6FF70ADF8040089
:101EC0000020ADF80000ADF80600ADF802004FF0BC
:101ED000804469462046FEF715FF00231A46032179
:101EE0002046FFF734FA03A8FFF7A3F90A21ADF85B
:101EF000141003A92046FFF7BDF801212046FFF783
:101F0000CFFB012211462046FFF7B9F900212046F8
:101F1000FFF79DFB01212046FFF79CF908B010BD9B
:101F20000021022805D0032809D0042809D0002068
:101F300070474FF08042B2F9240091847047314AD3
:101F400000E0314AB2F90000118070474FF0804044
:101F5000018A018A21F001010182704710B588B021
:101F600001210420FEF7F0FD01210820FEF7E3FD2A
:101F7000C020ADF8180004208DF81B0006A92348E6
:101F8000FEF79BFB6846FFF741F900204FF6FF7113
:101F9000ADF804101C4CADF80000ADF80600ADF82B
:101FA0000200243C69462046FEF7ACFE00231A4698
:101FB00003212046FFF7CBF903A8FFF73AF90A21DE
:101FC000ADF8141003A92046FFF754F8012120466C
:101FD000FFF766FB012211462046FFF750F900216A
:101FE0002046FFF734FB01212046FFF733F995E740
:101FF000054814380188018821F0010101807047EB
:10200000000801402404004024080040000C014066
:1020100030B5044687B001210820FEF78CFD012170
:102020008804FEF791FD4FF48061ADF81010032095
:102030008DF812001820214D8DF8130004A92846B0
:10204000FEF73BFBE814ADF8100004208DF81300F8
:1020500004A92846FEF731FB27208DF81400022141
:102060008DF815108DF8161001208DF8170005A8B1
:10207000FEF7B9F90020ADF804000094ADF80600B1
:10208000ADF80800ADF80C000C200D4CADF80A00BE
:1020900069462046FFF746FB012240F225512046C3
:1020A000FFF7BDFB01212046FFF7AFFB07B030BDB6
:1020B00040F225510248FFF769BC0000000C0140C6
:1020C0000048004070B5E54D0023012411B1C5F86A
:1020D000BC4101E0C5F8BC31E14A0021C2F89431AD
:1020E000060602D5C2F8904101E0C2F89031C2F86C
:1020F00094414006491C000EC9B20829EED3C5F828
:10210000BC4170BD70B5D74E002505F1B000C0B21E
:102110000021FFF7D7FF00210846FFF7D3FF00217A
:102120001020FFF7CFFF002406EBC4000121405D23
:10213000FFF7C8FF641CE4B2802CF5D36D1CEDB230
:10214000082DE2D370BD00B500218D20FFF7BAFF46
:1021500000211420FFF7B6FF0021AF205DF804EB4B
:10216000B0E700B500218D20FFF7ACFF0021102063
:10217000FFF7A8FF0021AE205DF804EBA2E710B442
:102180000021B84B0A46002003EBC004401CC0B23B
:1021900062548028F8D3491CC9B20829F3D310BC73
:1021A000B0E710B57F2816D83F2914D80723A3EB32
:1021B000D10301F00701C1F107040121A140A94C9D
:1021C000DBB204EBC000002AC25CC9B201D00A43F2
:1021D00000E08A43C25410BD2DE9F04F203A9C46DE
:1021E0000D468246884602F0FF090026DDF824B03D
:1021F0002FE0BCF10C0F08D09B4901EB0910002720
:10220000845D200607D55A4609E0984909EB490044
:1022100001EB8000F3E7BBF1000F12D0002229464A
:102220005046FFF7BEFF60066D1C040EEDB2A5EB35
:102230000800604507D10AF10100454600F0FF0A99
:1022400005E00122EBE77F1CFFB2082FD9D3761CF3
:10225000F6B26645CDD3BDE8F08F0346012000E01D
:102260005843491EC9B2FBD270472DE9FF4F81B0D8
:102270000027DDF838B01D46924680463C464FF0B8
:1022800001094FEA5B0627E0281B401EC1B20A2065
:10229000FFF7E3FFBAFBF0F00A21B0FBF1F201FB1C
:1022A000120027B9691E8C4201DA48B1012730308B
:1022B000C2B206FB0480C0B25B46CDF8009006E0D7
:1022C00006FB0480C0B25B462022CDF80090029944
:1022D000FFF782FF641CE4B2AC42D5D305B0BAE785
:1022E000F8B516460D460446012714E07A2C02D9AB
:1022F00000241035EDB23A2D03D900242546FFF70E
:102300003EFF009732780C2329462046FFF764FFF2
:102310000834E4B2761C30780028E7D1F8BD38B52F
:1023200001210820FEF707FC3820ADF8000010243A
:102330008DF8034002258DF8025069464C48FEF79F
:10234000BCF901210420FEF7F6FBE002ADF8000025
:102350008DF802508DF8034069464648FEF7ADF906
:102360000120FEF791FA0020FEF780FB0020FEF727
:1023700099F80020FEF788FA394C0020C4F88C0147
:10238000642004F5C674FFF75FFB01202060002184
:10239000AE20FFF797FE0021D520FFF793FE002126
:1023A0005020FFF78FFE0021A820FFF78BFE0021B1
:1023B0003F20FFF787FE0021D320FFF783FE002197
:1023C0000846FFF77FFE00214020FFF77BFE00213B
:1023D0008D20FFF777FE00211420FFF773FE002108
:1023E0002020FFF76FFE00210220FFF76BFE002187
:1023F000A120FFF767FE0021C020FFF763FE002148
:10240000DA20FFF75FFE00211220FFF75BFE0021BC
:102410008120FFF757FE0021EF20FFF753FE002138
:10242000D920FFF74FFE0021F120FFF74BFE0021DE
:10243000DB20FFF747FE00213020FFF743FE00219D
:10244000A420FFF73FFE0021A620FFF73BFE00215E
:10245000AF20FFF737FEFFF792FE38BD00002142A4
:1024600000802142C40100203A730008C66E0008B3
:10247000000C01400008014008B501210420FEF7CE
:102480005AFB2020ADF8000048208DF80300694673
:102490000B48FEF712F908BD0A480B49027812B141
:1024A000D1F8142122B1D1F81411012904D005E08A
:1024B0000021017001207047012101700020704748
:1024C0000008014048000020000021421FB5012102
:1024D0000846FEF730FB01210420FEF72CFB4FF4E9
:1024E0008054ADF80C4048208DF80F0003A9114826
:1024F000FEF7E3F80C210020FEF793F900208DF899
:1025000004000C2000948DF8050001248DF806408D
:102510006846FEF715F828208DF8080002208DF88F
:1025200009008DF80A408DF80B4002A8FDF75BFF0B
:102530001FBD00000008014008B501210820FEF77A
:10254000FAFA4FF44070ADF8000010208DF8030047
:1025500003208DF802006946FE48FEF7AEF808BD7C
:1025600070B5FC48001D016821F0F00101600168B0
:1025700041F030010160F84C0120C4F8A401D4F806
:10258000241149B1C4F8A001FFF747FA0025C4F8A7
:10259000A451D4F8240108B1002070BD0120FFF738
:1025A0003CFAC4F8A051012070BDEA4810B5001DE6
:1025B000016821F0F0010160016841F03001016023
:1025C000E54C0020C4F8A001C4F8A401042004F5DF
:1025D000D074FFF722FA012020606060BDE810404F
:1025E0000420FFF71ABA70B5DA480024001D01680C
:1025F00021F0F0010160016841F080010160D64DD9
:102600000126C5F8A4613046FFF707FAC5F8A061B6
:1026100007E0641CE4B2322C03D9FFF7C6FF0020A8
:1026200070BD0120FFF7F9F9D5F824010028F0D199
:10263000C5F8A001012070BD70B5C74C0025C4F8D5
:10264000A051C448001D016821F0F001016001683B
:1026500041F030010160C4F8A451022004F5D074A7
:10266000FFF7DBF9012020600220FFF7D6F9256093
:1026700070BD70B5B84C0026C4F8A061B548001D07
:10268000016821F0F0010160016841F03001016052
:102690000125C4F8A451022004F5D074FFF7BDF958
:1026A00025600220FFF7B9F9266070BD2DE9F041E1
:1026B0000546A848001D016821F0F001016001688D
:1026C00041F030010160A44E0027C6F8A0713C46DD
:1026D0004FF00108E809C6F8A4016806050E0120BC
:1026E000FFF79BF9C6F8A0810120FFF796F9C6F81D
:1026F000A0710120FFF791F9641CE4B2082CE9D322
:10270000BDE8F0812DE9F0411D4616460C4607460E
:10271000FFF726FF68B17806000EFFF7C7FFFFF747
:1027200062FFA8B12046FFF7C1FFFFF75CFF00245E
:1027300008E00120E4E7285DFFF7B8FFFFF753FF4B
:1027400030B1641CB442F6DBFFF72FFF0020D7E75F
:10275000FFF72BFFEDE72DE9F04781467D48002488
:10276000001D016821F0F0010160016841F0800165
:102770000160794E254627464FF00108C6F8A07142
:102780000220FFF74AF9C6F8A0816006040ED6F8C9
:10279000240108B1641CE4B20220FFF73EF96D1C6D
:1027A000EDB2082DEAD3B9F1000F02D0FFF744FFD4
:1027B00001E0FFF75EFF2046BDE8F0872DE9F0411C
:1027C0001D4614460F460646FFF7CAFEB0B1700616
:1027D000000EFFF76BFFFFF706FF88B13846FFF7E3
:1027E00065FFFFF700FFFFF7BBFE012000EB46008F
:1027F000C0B2FFF75BFFFFF7F6FE0DE001207FE7B9
:10280000FFF7D3FEFAE7012C0CD00120FFF7A3FF5E
:10281000641E05F8010BE4B2002CF4D1FFF7C5FEED
:1028200000206DE70020F1E770B50D460446FFF784
:1028300097FE2046FFF73AFFFFF7D5FE2846FFF741
:1028400035FFFFF7D0FEFFF78BFE641CE0B2FFF709
:102850002DFFFFF7C8FE0020FFF77DFF0446FFF7BE
:10286000A4FE204670BD2DE9F0411D46164688465F
:1028700007460024FFF774FE3846FFF717FFFFF7FF
:10288000B2FE4046FFF712FFFFF7ADFEFFF768FE0E
:102890007F1CF8B2FFF70AFFFFF7A5FE771E09E0DD
:1028A000BC4201D0012000E00020FFF754FF285572
:1028B000641CE4B2B442F3D3FFF777FE20461FE76F
:1028C0002DE9F0411D461646884607460024FFF7CD
:1028D00047FE3846FFF7EAFEFFF785FE4046FFF762
:1028E000E5FEFFF780FE06E0285DFFF7DFFEFFF75D
:1028F0007AFE641CE4B2B442F6D3FFF756FE012020
:10290000FEE610B51446FFF78FFF2070012010BDC2
:1029100007B502AB0122FFF7D3FF0EBD2DE9F84347
:1029200014461E460D4680466A46089FFFF7E9FF9B
:10293000002821D0621CFF2000FA02F1C4F1080235
:102940003244521ED0400143C6F108008740FAB21B
:1029500004E00000000C014000802142C4F10700A7
:10296000C2409DF80000084010438DF80000C2B23C
:1029700029464046FFF7CCFFBDE8F883F8B5154679
:102980001C460E4607466A46FFF7BBFF01209DF82E
:102990000010A8400CB1014300E08143CAB28DF899
:1029A000002031463846FFF7B3FFF8BDC8234FF487
:1029B0008062FE4940F6F63001F052BE2DE9FF413B
:1029C0000446FBA002AB00680290FAA000680390E6
:1029D000F9A00668F9A0056804F00300195C8DF8F9
:1029E0000010C4F3C1015A5C8DF80120C4F38112B8
:1029F0009B5C8DF8023003AB185C8DF80400585CCA
:102A00008DF80500985C8DF806006A46032140F2B7
:102A1000264001F0D5FD4FF0FF37E0BB01AA0321AE
:102A200040F22A4001F0CCFDA8BBCDE9006560076B
:102A30000BD59DF8000040F001008DF800009DF8D6
:102A4000040040F001008DF80400A0060BD59DF8AD
:102A5000010040F001008DF801009DF8050040F0F4
:102A600001008DF80500E0050BD59DF8020040F04F
:102A700001008DF802009DF8060040F001008DF87D
:102A800006006A4603214FF4886001F099FD10B9F1
:102A900001AA032100E004E040F2314001F090FD82
:102AA00018B1384604B0BDE8F081C5480481002063
:102AB000F8E7F8B5C249098901F0030250F822404D
:102AC0004A0700D56442C1F3C10250F822308A0699
:102AD00000D55B42C1F3811250F82220C80500D511
:102AE0005242B84984FB0140850045EA947083FB5B
:102AF000014382FB0121950F45EA8105010E8DF806
:102B00000010010C8DF80110010A8DF80210A40FBD
:102B10008DF8030044EA83046A4604214FF474707C
:102B200001F04EFD4FF0FF3688B9200E8DF8000001
:102B3000200C8DF80100200A8DF802008DF803406A
:102B40006A4604214FF4757001F03AFD08B1304631
:102B5000F8BD280E8DF80000280C8DF80100280A19
:102B60008DF802008DF803506A4604214FF4767008
:102B700001F026FDF8BD2DE9FF41044603A801F050
:102B8000A5F9BDF80C00420CC3038D48018901F082
:102B900003004D0754F8200000D54042C1F3C105A1
:102BA0008E0654F8255000D56D42C1F38116C90533
:102BB00054F8264000D56442A0FB0367C11701FB0F
:102BC000037100FB0210810041EA9670A5FB0367C8
:102BD000E91701FB037105FB02118D0045EA9671AF
:102BE000A4FB0367E51705FB037304FB02329300A4
:102BF00043EA9672030E8DF80030030C8DF8013015
:102C0000030A8DF802308DF80300080E8DF80400D9
:102C1000080C8DF80500080A8DF80600100E8DF8D6
:102C20000800100C8DF80900100A8DF80A008DF8C4
:102C300007108DF80B206A460C214FF4257001F027
:102C4000BFFC2FE730B504465FA185B007C98DE80A
:102C500007004FF0FF35C82C16D8C820B0FBF4F1A0
:102C6000491E080A8DF80C008DF80D1003AA0221E8
:102C700040F2162001F0A4FC30B96A460C2140F65F
:102C8000C12001F09DFC10B1284605B030BD4C4874
:102C900084810020F9E74A49898901800020704732
:102CA0002DE9FC41054640074FF0FF367CD0B1F5D9
:102CB000C86F79D8084603F009FF464903F0F0FDD4
:102CC000074601A801F0A5F89DF80400022806D0E7
:102CD00004280DD008282ED0102865D134E00E210C
:102CE000384604F0B2F803F0B9FE84B23A4907E07E
:102CF0000D21384604F0A9F803F0B0FE374984B23C
:102D0000384603F0F7FE03F0A9FE210A8DF8001003
:102D100080B28DF80140010A8DF802108DF8030091
:102D2000E8076C4620D0224602214FF4EA7001F0F9
:102D300047FCC8BB11E00C21384604F086F803F0CC
:102D40008DFE84B22649DBE70B21384604F07DF87E
:102D500003F084FE84B22349D2E7A21C02214FF47F
:102D6000927001F02DFCF8B9A8070DD56A46022132
:102D70004FF4EC7001F024FCB0B9A21C02214FF416
:102D8000947001F01DFC78B9680731D56A460221BC
:102D90004FF4EE7001F014FC30B9A21C02214FF484
:102DA000967001F00DFC1FE01FE000002A7900087A
:102DB0004CCD6C000CC92C003656760026466600B9
:102DC000C405002009E3CA02FEF2ABC4AAF1DFDFAA
:102DD000BBAFDFDF00004843000040460000C045B5
:102DE000000040450000C04410B13046BDE8FC8101
:102DF0000020FBE708B500218DF80010C10702D0C4
:102E000030218DF80010810705D59DF8001041F0A4
:102E10000C018DF80010400705D59DF8000040F02A
:102E200003008DF800006A4601214FF4A47001F000
:102E3000C7FB08BD08B560B1042800D90420401EB6
:102E40008DF800006A46012140F24F1001F0B8FBF6
:102E500008BD0120F3E70521B0FBF1F008B5010A38
:102E60008DF800108DF801006A4602214FF4EF70D2
:102E700001F0A6FB08BD0521B0FBF1F008B5010A81
:102E80008DF800108DF801006A4602214FF4ED70B4
:102E900001F096FB08BD4FF47A7290FBF2F008B592
:102EA0004843010E8DF80010010C8DF80110010A45
:102EB0008DF802108DF803006A4604214FF4AE70BD
:102EC00001F07EFB08BD0521B0FBF1F008B5010A59
:102ED0008DF800108DF801006A4602214FF4AD70A4
:102EE00001F06EFB08BD0521B0FBF1F008B5010A49
:102EF0008DF800108DF801006A4602214FF4AC7085
:102F000001F05EFB08BD38B504004FF0FF3506D078
:102F10006A4604214FF4587001F07AFB08B1284644
:102F200038BD00989DF8031000BA20F0FF00084358
:102F30002060002038BD08B5010E8DF80010010C8E
:102F40008DF80110010A8DF802108DF803006A4611
:102F500004214FF4587001F033FB08BD38B504006C
:102F60004FF0FF3506D06A4604214FF4717001F02E
:102F70004FFB08B1284638BD009800BA20F0FF0189
:102F80009DF80300014301EB8100800020600020D8
:102F900038BD1421B0FBF1F008B5010E8DF800101A
:102FA000010C8DF80110010A8DF802108DF8030054
:102FB0006A4604214FF4717001F002FB08BD08B5A8
:102FC00060B120208DF8000028208DF8010030200D
:102FD0008DF8020038208DF8030004E0A3220421BC
:102FE000684602F0CFFB6A46042140F69E2001F0BD
:102FF000E7FA00F052FB08BD08B560B1C0208DF8BB
:103000000000C2208DF80100C4208DF80200C62007
:103010008DF8030004E08B220421684602F0B2FB25
:103020006A46042140F6982001F0CAFA00F035FB08
:1030300008BD0EB54FF4976308B1E1A000E0E3A02E
:1030400007C88DE807006A460921184601F0B8FA5A
:103050000EBD3EB5044602208DF80000CA208DF852
:103060000100E3208DF8020009208DF803006A4674
:103070000421682001F0A4FAA3208DF80000610665
:1030800009D5C0218DF80110C8218DF80210C22188
:103090008DF8031005E08DF801008DF802008DF821
:1030A000030014F4C07F09D0C4218DF80410CC2192
:1030B0008DF80510C6218DF8061005E08DF8040086
:1030C0008DF805008DF806008DF808008DF80700D2
:1030D0008DF809006A460A2140F6A72001F070FA2F
:1030E000A0074FF0D80503D020208DF8000001E0A4
:1030F0008DF800506A46012140F6B62001F060FAD2
:10310000A00601D5012000E00020FFF792FF14F493
:10311000C07F1ED0E0050AD5B2208DF800008B20BC
:103120008DF80100B6208DF802009B2009E0B02048
:103130008DF8000080208DF80100B4208DF8020089
:1031400090208DF803006A46042140F6A22001F089
:1031500037FAE0074FF40B6323D0F8208DF8000016
:103160006A460121184601F02BFAFA210720FFF7E1
:1031700097FD0720FFF73EFE0120FFF75BFE64206E
:10318000FFF769FE4FF4FA70FFF775FEC821924809
:10319000FFF781FE2820FFF796FE0A20FFF7A3FE27
:1031A00006E08DF800506A460121184601F008FA41
:1031B000A00703D5D9208DF8000001E08DF800505C
:1031C0006A46012140F23D7001F0FAF9600701D52D
:1031D000012000E00020FFF70FFFE00601D50120ED
:1031E00000E00020FFF7EBFE7C4D44F00800688112
:1031F00000F053FA0020A873600601D50620A873DA
:1032000014F4C07F02D0A87B801DA87314F0140FA3
:1032100002D0A87B1030A873A00702D0A87B001DA5
:10322000A87300203EBD6D49498901800020704788
:1032300000B56BA187B00EC98DE80E006BA10DF132
:103240000C0C0EC98CE80E0040F68223012807D032
:10325000022803D04FF0FF3007B000BD6A4600E0FF
:1032600003AA0B21184601F0ABF9F5E72DE9FF4F52
:1032700089B01646DDE916520024DFF860810F465A
:1032800081462C80A24698F80E00694600F016FF91
:103290004FF0FF3B18B158460DB0BDE8F08FB8F8BD
:1032A0000A0010F0140F3CD0009909BA21F0FF0C6D
:1032B0009DF803104CEA010CC6F800C0019909BA48
:1032C00021F0FF039DF807100B43736002999DF8EE
:1032D0000B2009BA21F0FF011143B160039A9DF858
:1032E0000F4012BA22F0FF022243F2604FEA2C464E
:1032F00009141B1412147643494303FB036302FBB6
:10330000021119441024A1F17061B1F1007F04D9B8
:1033100000F0C3F9A5F800A0BDE7298841F4807149
:10332000298041066A460ED51119A41D0B885BBA87
:103330003B804B885BBA7B80898849BAB9802988F1
:1033400041F00801298010F4C07F11D01119A41D8B
:103350000B885BBAA9F800304B885BBAA9F8023039
:10336000898849BAA9F80410298841F07001298098
:10337000800718D01444E07800F0C00500F03F0149
:103380006078C00707D0C80801F00701D8F800200E
:10339000491C02B190476078000704D5D8F80410A2
:1033A00009B1A80988470C9800F00EFC002073E7CB
:1033B0000A490860002070470849486000207047AB
:1033C000B8AAB38DB4980D355D000000B8AAAAAABA
:1033D000B088C3C5C700000009E3CA02C4050020C5
:1033E000D8B1B9F38BA391B609B4D900DAB1B9F366
:1033F0008BA391B6DAB4DA00F8B5FA4C0023224672
:1034000094F82460D2E900125D1E56B190B10220FA
:103410000DE01078C97B6B460122FFF773F960B9A4
:103420000DE0A67A4EB128B1607C58B901208DF824
:103430000000EEE78DF80030EBE72846F8BD9DF878
:10344000000060740020F8BD38B50024E54D12E09E
:103450002868C27AA2420CD0407DA04209D00878E8
:103460006B4601222146FFF7A9F910B14FF0FF305A
:1034700038BD641CE4B269680879A042E8D800202D
:1034800038BDD84A30B40B4611684FF0FF34CD7ABE
:10349000854206D0497D814203D051680A79824233
:1034A00002D8204630BC70470C780146204630BC1C
:1034B0000122FFF783B938B5CA4D044695F82300B9
:1034C000A04201D1002038BD0CB1302000E0002026
:1034D0008DF80000A87C28B19DF8000040F00200A3
:1034E0008DF8000095F8220028B19DF8000040F00A
:1034F00080008DF8000028686B460122017D686815
:103500000078FFF7FFF810B14FF0FF3038BD85F8B5
:103510002340D7E7F8B5044610F0700F4FF00006CF
:1035200001D0012004E014B18DF8006002E04020D9
:103530008DF80000AB4D6B4601222868817C6868DD
:103540000078FFF7DFF84FF0FF3760BB9DF8000011
:1035500020F0400028738DF80060600602D404203B
:103560008DF80000A00605D49DF8000040F0020090
:103570008DF80000E00605D49DF8000040F0010041
:103580008DF80000200705D49DF8000040F03800B9
:103590008DF8000028686B460122C17C68680078BD
:1035A000FFF7B0F810B1AE723846F8BD24B1082C60
:1035B00002D00020FFF77FFFAC722E753220FEF79D
:1035C00043FA0020F8BDF8B5864D0446A87CA04219
:1035D00001D10020F8BD83484FF0FF366B46D0E99B
:1035E00000104FF001020979007834B3FFF7E6F8D4
:1035F000D8BB9DF800006B4620F020008DF800003D
:1036000028680122017968680078FFF77BF860BBC1
:103610000320FEF719FA02208DF8000095F8220029
:1036200070B382202AE028686B460122017D686819
:103630000078FFF767F8C0B92DE0FFF7BFF8A0B931
:10364000A87AC0079DF8000002D040F0200001E0F9
:1036500020F020008DF8000028686B4601220179D7
:1036600068680078FFF74EF808B13046F8BD0320CF
:10367000FEF7EAF995F8220000B180208DF80000ED
:1036800095F823000028CED09DF8000040F03000CF
:103690008DF80000C7E7AC749BE7F8B5514D4FF0CB
:1036A000FF36A87A00287CD000248DF800402868D6
:1036B0006B460122C17B68680078FFF723F8002879
:1036C0006FD128686B460122417968680078FFF75E
:1036D00019F8002865D128686B46012201796868CD
:1036E0000078FFF70FF800287AD195F82400C8B3C6
:1036F0000C208DF8000028686B460122017968686B
:103700000078FEF7FFFF00286AD1C0208DF8000086
:10371000A87AC00702D0E0208DF8000028686B4628
:103720000122017968680078FEF7ECFF002857D184
:10373000687C18B102208DF8000001E08DF800408F
:1037400028686B460122C17B68680078FEF7DAFFC3
:1037500038BB8DF8004028686B46012241796868C3
:10376000007839E0FFE704208DF8000028686B46F8
:103770000122017968680078FEF7C4FF88B9A87C47
:1037800080B9A87AC0070DD060208DF800002868A5
:103790006B460122017968680078FEF7B3FF00B933
:1037A00002E01DE04020F0E7687C18B101208DF8B0
:1037B000000001E08DF8004028686B460122C17BC3
:1037C00068680078FEF79EFF50B92868054B012213
:1037D0004179686810330078FEF794FF002800D024
:1037E0003046F8BD4C0000202DE9F041FF4D20F09F
:1037F0000104002695F8240010B10020BDE8F081F6
:10380000A87A4FF0FF3838B120402F7C2874A042AE
:1038100000D0464624B901E04046EFE7287D40B19C
:103820000120FFF7E9FD3CB1FFF737FF20B12F740E
:10383000F2E70020FFF7E0FD3046DFE738B5EB4C5C
:103840004FF0FF35A17A31B3BC2801D3012010E03D
:10385000622801D302200CE02A2801D3032008E0CB
:10386000142801D3042004E00A2801D3052000E035
:1038700006208DF80000E07A9DF80010884201D102
:10388000002038BD20686B4601228178606800788E
:10389000FEF738FF08B1284638BD9DF80000E072F9
:1038A000EEE72DE9F84304464FF0FF39282844D8C5
:1038B0000727CE4D00267CB10120FFF7FCFD20201C
:1038C0008DF800004FF00108012C17D0052C18D8F6
:1038D0008DF8018005201FE00020FFF7ECFD8DF83A
:1038E00000608DF8017028686B460222817C686850
:1038F0000078FEF707FF00BB2E7529E08DF8016008
:10390000E8E7142C04D802208DF801000A2003E017
:1039100003208DF801001420FFF790FF9DF80100AF
:103920006B4607EB80108DF8010028680222817C2D
:1039300068680078FEF7E6FE10B14846BDE8F883F7
:103940000820A8722E7385F814800020FFF74CFF22
:103950000020F3E7F8B5A54D04464FF0FF37A87AED
:1039600028B395F8240010BB287D48B12CB1282C31
:1039700003D8E0B2FFF795FF24E00020FFF791FFA6
:103980004FF47A76042C01D2042402E0B44200D928
:103990003446B6FBF4F0401E8DF8000028686B46F4
:1039A0000122417868680078FEF7ACFE08B138461D
:1039B00017E79DF80000401CB6FBF0F0E8814008D6
:1039C000FFF73CFF00200CE738B5884C4FF0FF357F
:1039D000A17A19B3022806D0042806D008280ED0F0
:1039E00010281BD10DE0002000E008208DF8000019
:1039F000607A9DF80010B0EBD10F04D005E01020E4
:103A0000F4E71820F2E7002038BD20686B46012259
:103A1000C17960680078FEF775FE08B1284638BDA8
:103A20009DF80000C0086072EDE738B56F4C4FF0AC
:103A3000FF35A17A31B3FA2809D0B0F5FA7F08D062
:103A4000B0F57A7F0FD0B0F5FA6F1BD10DE00020F2
:103A500000E008208DF80000207A9DF80010B0EBFF
:103A6000D10F04D005E01020F4E71820F2E7002081
:103A700038BD20686B460122817960680078FEF7C6
:103A800041FE08B1284638BD9DF80000C0082072EC
:103A9000EDE72DE9FC41554C80208DF800002068B1
:103AA0006B460122817C60680078FEF72BFE4FF0A8
:103AB000FF37002832D16420FDF7C6FF00258DF8BE
:103AC000005020686B460122817C60680078FEF718
:103AD00019FE002870D120686B460622817D60683F
:103AE0000078FEF76BFE002866D19DF805009DF872
:103AF0000310C007400F01F0010140EA41019DF8A9
:103B000001004FF0010600F00100014309D0012936
:103B100005D0022915D036A001F08CFD4CE0E674EA
:103B200010E020686B460122C17860680078FEF7DB
:103B300045FE40BB9DF8000010F00F0020D0042887
:103B400022D0E574FF2004F80A0F4FF6FF7104F845
:103B5000020C04F8010C6070A180A0712072A670A4
:103B600026766576E572A572E56025616561A576C4
:103B7000E576A5834FF4FA60FFF757FF18B907E021
:103B8000254801F057FD17E024A001F053FDC6E7DA
:103B90000220FFF719FF78B92A20FFF74FFE58B926
:103BA0003220FFF7D7FE38B90020FFF71DFE18B905
:103BB0000020FFF708FD10B13846BDE8FC81002069
:103BC000FFF7A8FC0020F8E770477CB504460748DB
:103BD0004FF0FF35817A11F0700F32D001684068E4
:103BE0006B46097B0078062228E000004C0000208C
:103BF000556E737570706F7274656420736F667440
:103C0000776172652070726F647563742072657677
:103C10002025642E0A0000001086000848616C66AA
:103C20002073656E73697469766974792070617246
:103C30007420666F756E642E0D0A0000FEF7BEFDDF
:103C400008B128467CBDBDF8000040BA2080BDF810
:103C5000020040BA6080BDF8040040BAA080002095
:103C60007CBD7CB50446FE484FF0FF35817A0907DC
:103C700008D5016840686B46497B00780622FEF74C
:103C80009DFD08B128467CBDBDF8000040BA2080EB
:103C9000BDF8020040BA6080BDF8040040BAA080C0
:103CA00000207CBDF8B5EE4C07464FF0FF35A07AFA
:103CB00040B120686B460222817B60680078FEF785
:103CC0007DFD08B128468CE5BDF80000646840BA67
:103CD00005B2E08802F0FAFE0646B4F9080002F0E8
:103CE000DDFE0446284602F0D9FE214602F0D8FF48
:103CF000314602F0D5FDDB4902F06AFD102103F0E8
:103D0000A4F802F08FFE386000206AE52DE9FC413E
:103D100004004FF0FF3862D0206820B9606810B905
:103D2000A06800285CD0CE4F03226B46786811460D
:103D30000078FEF743FDE0BB9DF80010082000EB83
:103D4000111101F00F029DF801109DF8023000EBF7
:103D5000111100EB1310236840325B0093FBF2F269
:103D600016B2626801F00F015200403192FBF1F18E
:103D70000DB2A16800F00F004900403091FBF0F057
:103D800004B2786806226B4600781146FEF716FDED
:103D900078B9BDF80000BDF8021040BABDF80420A3
:103DA000304449BA52BA030A294422448DF80030FB
:103DB00000E014E08DF80100080A8DF80200100AF6
:103DC0008DF804008DF803108DF805207868062220
:103DD0006B4600781146FEF795FC002800D040465F
:103DE000EBE69F49097A39B1012907D002290AD0A7
:103DF00003290BD0002103E0FA2101E04FF4FA710E
:103E00000180002070474FF47A71F9E74FF4FA61AE
:103E1000F6E7934A517A41B1012908D002290FD01F
:103E200003290FD04FF0FF307047022100E004213A
:103E30000170D17C11B101784900017000207047F8
:103E40000821F5E71021F3E78549C97A072913D23C
:103E5000DFE801F01204060A0C0E1000BC2100E09D
:103E600062210180002070472A21FAE71421F8E737
:103E70000A21F6E70521F4E70021F2E7784991F8F5
:103E8000242012B14FF0FF307047C9890180002013
:103E9000704700210180481E70474FF0FF30704787
:103EA0006F49097A41B1012908D002290AD00329B2
:103EB0000AD04FF0FF3070476B4900E06B4901605A
:103EC000002070476A49FAE76A49F8E7644A517A7C
:103ED00041B1012909D0022911D0032912D04FF094
:103EE000FF3070474FF4804101E041F69C71018042
:103EF000D17C11B1018849080180002070474FF43E
:103F00008051F4E74FF40061F1E75549097C0170F5
:103F1000002070475249897A01B1012101700020C7
:103F2000704738B505464E484FF0FF34817A41B1AD
:103F3000016840686B46097C00780222FEF73EFC6F
:103F400008B1204638BDBDF8000040BA28800020E6
:103F500038BD2DE9FE4F884641498146002491F83D
:103F600024001E4625464FF0FF3BD0BB002030709A
:103F7000887AB0B3087CA0B3420600D5022482063A
:103F800000D5A41CC20600D5A41C000700D5A41DA2
:103F90008A460968DAF804006B46897A00780222BA
:103FA000FEF70CFCE8B9BDF8000047BAA74263D39E
:103FB000DAF804004188B7EB510F13D9DAF8001092
:103FC00000786B46497C0122FEF7F8FB48B99DF862
:103FD0000000C00606D5FFF760FB6FF00100BDE8EA
:103FE000FE8F0AE0DAF80010DAF804006B46C97AAE
:103FF00000782246FEF7E2FB08B15846EFE7B7FB30
:10400000F4F00C99401E087000203070A4B39AF8A8
:10401000101050460A07694613D5BDF80020062542
:1040200052BAA8F80020BDF8022052BAA8F802201F
:10403000BDF8042052BAA8F80420327842F00802F1
:104040003270A5421AD0027C520617D54A1912883E
:1040500052BAA9F80020327842F0400232700CE0E7
:104060004C00002000000C4200000343000083428B
:1040700033330342333383411EE0AD1CA5420CD0E1
:10408000027C920609D54A19AD1C128852BAA9F8C9
:104090000220327842F020023270A5420CD09AF809
:1040A0001000C00608D54819008840BAA9F80400D5
:1040B000307840F010003070002090E72DE9F84390
:1040C000FA4E0546174696F8240089464FF0FF3809
:1040D00088B3B07A78B330686B460222817A706810
:1040E0000078FEF76BFB30BBBDF8000044BAAC4271
:1040F00002D2002038701EE070684188B4EB510F86
:1041000010D9316800786B46497C0122FEF756FBD6
:1041100088B99DF80000C00604D5FFF7BEFA6FF01D
:1041200001000BE43068EAB24B46C17A706800784F
:10413000FEF744FB08B140460BE4B4FBF5F0401E2B
:104140003870002005E4D94981F82200002070472A
:104150002DE9FE4F05460120D44E8DF800004FF0AA
:1041600000088DF8018030680C461746817C706825
:104170006B4602220078FEF7C5FA4FF0FF3A00289E
:104180007AD1C820FDF760FC8DF8008030686B465E
:104190000122C17B70680078FEF7B4FA0028EFD1E5
:1041A00030686B460122417970680078FEF7AAFA00
:1041B0000028E5D130686B460122817C7068007868
:1041C000FEF7A0FA0028DBD130686B460122C17DE2
:1041D00070680078FEF796FA0028D1D130686B46F7
:1041E0000122017970680078FEF78CFA0028C7D1A7
:1041F0004FF00C098DF8009030686B460122017970
:1042000070680078FEF77EFA002835D10F20FDF7A0
:104210001BFCB06A6B460122407A8DF800003068C2
:10422000817870680078FEF76DFA002824D1B06AB2
:104230006B460122007A8DF8000030684178706882
:104240000078FEF75FFA002873D1B06A807A0FB168
:1042500040F0E0008DF8000030686B460122817963
:1042600070680078FEF74EFA002862D12FB1B06A6C
:10427000C07A40F0E00001E04AE018208DF800002C
:1042800030686B460122C17970680078FEF73AFA0F
:10429000F0BB17B1C820FDF7D7FB40208DF8000018
:1042A00030686B460122017970680078FEF72AFABF
:1042B00070BB78208DF8000030686B460122417990
:1042C00070680078FEF71EFA10BB3220FDF7BCFBC9
:1042D0008DF80080306847466B464179706801224E
:1042E0000078FEF70FFA98B931687068B046897A9D
:1042F00000786B460222FEF761FA48B9BDF800006B
:10430000AF6040BAB0FBF9F06F60C6B22F6000E05A
:104310000FE0A76067602760002738E0D8F800103A
:10432000D8F804006B46C97A00780C22FEF746FAEA
:1043300008B1504653E6BDF80000236840BA02B207
:10434000BDF802001A4440BA01B2BDF80400226070
:10435000626840BA11446160A16800B20844A0607C
:10436000BDF806002B6840BA02B2BDF808001A4436
:1043700040BA01B2BDF80A002A606A6840BA114426
:104380006960A96800B208447F1CFFB2A860B74208
:10439000C4D328688322C117090441EA10410004EC
:1043A000002301F022F93246002301F01EF92860B3
:1043B00068688322C117090441EA10410004002300
:1043C00001F013F93246002301F00FF96860A86884
:1043D0008322C117090441EA10410004002301F0BF
:1043E00004F93246002301F000F9A86020684FF478
:1043F0000065C117090441EA104100042A46002360
:1044000001F0F3F83246002301F0EFF82060606815
:104410002A46C117090441EA10410004002301F0B3
:10442000E4F83246002301F0E0F86060A0682A4614
:10443000C117090441EA10410004002301F0D5F836
:104440003246002301F0D1F8A060002802DDA0F57B
:10445000803001E000F58030A0600020BFE538B575
:10446000124C94F8241081421DD00025E8B194F834
:104470002500E8B10020FEF7BFFF0020FFF7A3F8FA
:10448000E08CFFF767FA8DF8005060686B460122F8
:1044900000782321FEF736F9012084F82400FEF786
:1044A000ABFFFFF7FAF8002038BD04E04C00002015
:1044B0004FF0FF30F8E70020FEF79EFF207C8DF8DC
:1044C000000060686B46012200782321FEF71AF98C
:1044D00084F82450E5E72DE9F047FA4E82468AB089
:1044E00096F824000F4620B10020FFF7B8FF012501
:1044F00000E0002507A8FFF774FC06A8FFF789FC79
:1045000009A8FFF7A1FC08A8FFF7B8FC96F80A90E5
:1045100096F810800024002239465046FFF718FE16
:1045200010B1641C022CF6DB022C1AD000240122EC
:1045300003A96846FFF70CFE10B1641C022CF6DBE1
:10454000022C0ED003A9384600F0BEF9C7B2694666
:10455000504600F0F0F910F0FF0F4FF0000402D0C9
:1045600002E0002403E001240FB944F00204FF201C
:1045700030727072F0724FF6FF71F181B072307468
:1045800001203073BDF81C00FFF74FFA9DF81800AA
:10459000FFF71AFABDF82400FFF750F9BDF8200024
:1045A000FFF7D8F94846FEF7B5FF4046FFF71CF97C
:1045B00015B10120FFF753FF0AB02046BDE8F08790
:1045C000F8B517000D464FF0FF341FD0BD4EB17A3D
:1045D000E1B1010A8DF80010C0B28DF80100411957
:1045E00070684289914211D8316800786B46097E23
:1045F0000222FEF787F848B93068EAB23B46417DAF
:1046000070680078FEF77EF8002800D02046F8BDDC
:10461000F8B517000D464FF0FF341FD0A94EB17A00
:10462000E1B1010A8DF80010C0B28DF80100411906
:1046300070684289914211D8316800786B46097ED2
:104640000222FEF75FF848B93068EAB23B46417D86
:1046500070680078FEF7B2F8002800D02046F8BD58
:104660002DE9FF4FDFF85CA2054685B09AF82500DA
:10467000914688464FF0FF3BC0BBB8F1000F35D0E4
:1046800000241FE0281B102800DD102086B208EB54
:1046900004073A4631462046FFF792FF30BB6A4690
:1046A00031462046FFF7B4FF00BB38463246694624
:1046B00001F03CF820B16FF0010009B0BDE8F08FC7
:1046C000A01984B2AC42DDD34FEA19208DF8100056
:1046D0008DF81190DAF80000544604AB817EDAF8C8
:1046E000040002220078FEF70DF808B15846E4E70E
:1046F000012084F825000898E0840020DDE7714956
:1047000091F824100170002070474FF0FF3070477F
:104710004FF0FF3070472DE9F84F6A4C0F4604F117
:10472000160115004FF0FF3B8A464FF000094FF08D
:10473000010877D0B0F5FF5F01D9FF2605E02028FA
:1047400001D2012601E0C0F3471607B90127282D41
:104750006AD8607DF0B994F8240028B10020FFF7F2
:104760007EFE84F8208001E084F820905046FFF718
:1047700038FB54481830FFF74CFB52481A30FFF70B
:1047800063FB50481C30FFF779FBA07AA0774D48B7
:10479000217CC1770020FEF72FFE0020FFF781F873
:1047A0008DF8009020686B4601228178606800785F
:1047B000FDF7A8FF002837D140208DF800002068C1
:1047C0006B460122C17B60680078FDF79BFF50BB00
:1047D0008DF800608DF8017020686B460222017A26
:1047E00060680078FDF78EFFE8B90520FDF72CF929
:1047F000607A072606EBC0008DF8000020686B4643
:104800000122C17960680078FDF77CFF58B920204B
:104810008DF80000012D08D0052D0AD840468DF8EE
:1048200001800DE01DE01FE049E048468DF8019051
:1048300006E0142D01D8022000E003208DF80100CD
:10484000C0B206EB80108DF8010020686B46022292
:10485000817C60680078FDF755FF28B984F81580E1
:1048600027E000200A5C3AB3FF2020726072E072F9
:104870004FF6FF71E181A072207484F80C80A07F54
:10488000FEF748FEE08AFFF7D0F8207EFFF79CF89D
:10489000608BFEF7D3FFA08BFFF75CF8E07FFEF79D
:1048A000A3FF94F8200010B10120FFF7D8FD84F891
:1048B00015900020BDE8F88F401C0C28D2D3584634
:1048C000F8E700004C0000202DE9FE4F80460F461F
:1048D0000025684600F08FF800246FF00F0AE946C3
:1048E000012658F8240057F82410401A00D54042F9
:1048F00002F0D4F8514602F0A8FA59F8241011F049
:10490000FF4F0BD001F0CCFF4FF07E5102F0C8F901
:10491000604920F00040884205DC07E05E49084419
:104920005E49884202D306FA04F00543641C032C56
:10493000D7DB2846FEE42DE9F84F824658488946E1
:10494000002540686B46032200780D21FDF736FFF5
:1049500008B10720AEE79DF80000002400F01F001A
:104960008DF800009DF801006F4600F01F008DF8E3
:1049700001009DF802004FF0010800F01F008DF8C3
:1049800002005AF8241059F82400081A00D54042B1
:1049900002F084F86FF00F0102F057FA0646385D16
:1049A000E0B1404ADFF800B104E05946104602F099
:1049B000A1F80246385D401E10F0FF003855F4D1D2
:1049C0001146304601F06CFF4FF07E5102F068F95D
:1049D000304920F00040884205DC07E0334830448D
:1049E000B0F1D97F02D908FA04F00543641C032C06
:1049F000C7DB28465EE72DE9FC47054628486B469D
:104A0000042240680D210078FDF7D8FE10B1072080
:104A1000BDE8FC879DF800001C2101EAD0029DF84A
:104A20000300DFF88C90C0F301131A438DF80420C3
:104A30009DF80120C0F3810301EAD2021A438DF8E8
:104A400005209DF8022000F0030001EAD201014395
:104A50000024184F8DF80610A04601AE305D10B14D
:104A600045F8249009E045F824800CE055F824002E
:104A7000394602F03FF845F82400305D401E10F042
:104A8000FF003055F2D1641CE4B2032CE6D30020C1
:104A9000BEE70000295C0F3E666666C19A99D900A0
:104AA0004C0000200000C84154E3853F0000E0BEF8
:104AB0007B14AE3E1D5A843F90F90010002902DDA0
:104AC0004FF00000704702DA4FF00400704790F991
:104AD0000110002902DD4FF00100704702DA4FF0AB
:104AE0000500704790F90200002802DD4FF0020037
:104AF000704702DA4FF0060070474FF0070070472A
:104B0000F0B5E54FDDE905EC012507EB450437F885
:104B1000156024F8026CE68AA682A68D6685B4F834
:104B20004260A4F84060B4F85860A4F856606D1C68
:104B3000B4F86E60EDB2A4F86C600A2DE5D378820B
:104B40003985FA87A7F85430A7F86AE00021A7F85A
:104B500080C0084637F91020401CC0B211440A2812
:104B6000F8D30A2291FBF2F0B8820021084607EB45
:104B70004003401CB3F91630C0B219440A28F6D3DA
:104B800091FBF2F078850021084607EB4003401CBA
:104B9000B3F92C30C0B219440A28F6D391FBF2F0D5
:104BA000A7F840000021084607EB4003401CB3F97A
:104BB0004230C0B219440A28F6D391FBF2F0A7F8AC
:104BC00056000021084607EB4003401CB3F958305B
:104BD000C0B219440A28F6D391FBF2F0A7F86C0092
:104BE0000021084607EB4003401CB3F96E30C0B209
:104BF00019440A28F6D391FBF2F0A7F88200F0BD21
:104C000008B50323009002226B21D020FDF786FE19
:104C100008BD08B50223009004221B21D020FDF717
:104C20007DFE08BD08B50223009004221C21D0207F
:104C3000FDF774FE08BD034606226B21D020FDF768
:104C40009DBE954B10B50E3B01227521D020FDF77E
:104C50000AFE91480E38007810BD10B5FFF7F1FF3D
:104C6000682801D0002010BD012010BD0346052298
:104C70006A21D020FDF782BE034601223721D020D1
:104C8000FDF77CBE10B50220FFF7BAFF0320FFF747
:104C9000C0FF0020FFF7C6FF0020FFF7CCFF002079
:104CA000FFF7E4FFBDE810400020E5E738B500203D
:104CB00000906B46012275216820FDF77FFD9DF86D
:104CC0000000682809D075480168754A01F4E06160
:104CD00011430160BFF34F8FFEE7FEF7DAFE0028B5
:104CE00028D17820FEF716FC7820FEF77DFDC8203D
:104CF000FEF730FEFDF75AFE6A480446FFF7DCFE79
:104D00000546E01CFFF7D8FE45EAC005A01DFFF7E9
:104D1000D3FE45EA801080B2FDF750FE40F27310DA
:104D2000FEF797F9C820FDF78DFF00F074F8012019
:104D3000FFF795FB38BD2DE9F04788B0594C07A81F
:104D4000243CCDE9004004F11E0106AB02AA881FF5
:104D5000FEF78CFA2088C0055AD5029801F09EFE15
:104D60006FF01D06314602F070F8814660600398CE
:104D700001F094FE314602F068F80546A060049800
:104D800001F08CFE314602F060F80746E0600598BD
:104D900001F084FE314602F058F88046206101217E
:104DA000384602F052F88246394601F0A3FE064624
:104DB0004FF04041284601F09DFE294601F09AFE41
:104DC000314601F06DFF4FF07E5101F001FD01F021
:104DD000D3FC06460F460121484602F036F8294624
:104DE00001F088FE05465046414601F083FE294603
:104DF00001F0EEFC01F0C0FC32463B4600F0CEFF75
:104E00004FF06632284B01F0C3FA01F087F8606179
:104E100008B0BDE8F08710B588B002A905A8FFF773
:104E20005AFB072835D16846FFF73AF8059801F094
:104E300035FE00990C4601F05DFE01F0F3FD059092
:104E4000069801F02BFE214601F054FE01F0EAFD28
:104E50000690079801F022FE214601F04BFE01F07A
:104E6000E1FD079005A8FDF724FE01A8FFF72EF845
:104E7000BDF8040002994143029103994143039113
:104E80000499414302A80491FDF775FE07A000F0C4
:104E9000D1FB08B010BD0000E20500200CED00E0E1
:104EA0000400FA059C00002066A64C4073657474EB
:104EB000696E6720626961732073756363657366E9
:104EC000756C6C79202E2E2E2E2E2E0D0A000000D1
:104ED000002800DA4042704730B500230124F74A29
:104EE000002804DDC2F8B441C2F8B03103E0C2F8D2
:104EF000B431C2F8B041FFF7EBFFF14D2880002933
:104F000004DDC2F8BC41C2F8B83103E0C2F8BC31DC
:104F1000C2F8B8410846FFF7DBFFE9490C390880C1
:104F200030BDE849884208D8E749884205DCE748AF
:104F30000078012801D000207047E04A01200021BC
:104F4000C2F8B811C2F8BC11C2F8B411C2F8B0115D
:104F50007047884200DD0846904200DA10467047EC
:104F60002DE9F0470844DFF868A3DFF868934FF0B5
:104F70007C58404201F092FDD74C0646206901F072
:104F8000FBFBD64DD64B2A4601F002FA00F0C6FFD5
:104F90000746304601F0F0FB2A46D24B01F0F8F903
:104FA00005460E46384601F0E7FB2A46334600F038
:104FB000E7FF00F0B3FF05465946206101F070FE9F
:104FC00006462946606901F003FCC74960618842D2
:104FD00002DCC649884200D961614146304601F091
:104FE00089FD06464946606901F084FD074685F063
:104FF0000040514601F07EFD394601F051FE314638
:1050000001F04EFEA060BA480068FFF78AFF012851
:1050100003D0AE480078012801D100206061A0686B
:10502000BDE8F04701F0FEBC2DE9F041AA4D80F04B
:1050300000448846AF4E4FF07E572146686801F025
:10504000C7FB6860054688F00040314601F052FD1C
:1050500006463946284601F04DFD0546A64821463C
:1050600001F048FD294601F01BFE314601F018FE13
:10507000BDE8F04101F0D6BC10B5FDF70DFA93493B
:10508000012803D1087840B10020087009789B48B6
:1050900001B10121C0F8901110BD0120F5E72DE903
:1050A000F05F974E054601287DD04421D020FDF7C2
:1050B000BBFB04464321D020FDF7B6FB04EB0020E8
:1050C00001F004FD04464621D020FDF7ADFB45214B
:1050D000D020FDF7A9FB4821D020FDF7A5FB4721F3
:1050E000D020FDF7A1FB3C21D020FDF79DFB07461A
:1050F0003B21D020FDF798FB07EB002001F0E6FCF8
:1051000082463E21D020FDF78FFB07463D21D0206F
:10511000FDF78AFB07EB002001F0D8FC8146402117
:10512000D020FDF781FB07463F21D020FDF77CFB17
:1051300007EB002001F0CAFC0746B4F18E4F05DDF5
:105140004FF08F41204601F0ABFD04464FF08E48F2
:105150005046C24504DD4FF08F4101F0A1FD82466B
:105160004846C14504DD4FF08F4101F099FD81466D
:10517000474505DD4FF08F41384601F091FD074668
:10518000604884F000410160384601F0F5FA0746B6
:105190008846484601F0F0FA43463A4600F0FEFDE4
:1051A0000022594B00E01EE001F0F2F8574A584B3C
:1051B00000F096FF00F0B2FE8146504601F0DCFAA6
:1051C0003A46434600F0EAFD204601F0D5FA4FF09A
:1051D0006632504B00F084FF00F0A0FE022D10D08C
:1051E000032D13D019E0FFF7A6FD41483168016097
:1051F0004948B0F9000001F051FC42490860BDE89F
:10520000F09F0146484600F03BF903E0014648465E
:1052100000F052F980F0004030603548316801609C
:10522000EDE72DE9F0413548D0F83001D0BB3B49DE
:105230004FF480500860284C2078A0B300202070E4
:105240000320FFF72CFF0220FCF76AFE344E404299
:1052500030600420FCF764FE324F40423860207812
:10526000012827D0FFF708FF2648214C0168206855
:10527000FFF7DAFE054639683068FFF771FE28440B
:10528000294D03466E422A463146FFF762FE074625
:105290002A4631461846FFF75CFE03462068FFF7B2
:1052A00040FE18B106E0FFE70120C8E7194638467E
:1052B000FFF712FE0020BDE8F081000000802142CF
:1052C000402C0140000020C20000204200000020CD
:1052D0000000A0436666E63FA80000209A999999CD
:1052E0009999E93F9999C93F00401C4600401CC666
:1052F0000C000020CDCC1C400000E1C30000214286
:105300008C00002010000020008066406F1283C0D7
:10531000CA21094066663040900000201404014014
:1053200004000020080000200CE5FFFFF8B5FCF7A2
:105330000AFF00213EA20846FCF7D2FF3DA2002151
:105340003C20FCF7CDFF3DA214210020FCF7C8FF54
:105350003D4D0C242868002809DA3CA21421502075
:10536000FCF7BEFF009428680323424207E038A2FE
:1053700014215020FCF7B4FF00942A680323142161
:105380005F20FCF772FF33A21E210020FCF7A8FF6C
:10539000334D2868002809DA2CA21E215020FCF782
:1053A0009FFF009428680323424207E028A21E21A1
:1053B0005020FCF795FF00942A6803231E215F20EC
:1053C000FCF753FF27A232210020FCF789FF274D6D
:1053D000274E2868B04207D31CA232213020FCF7A8
:1053E0007FFF2868B04204D219A232213020FCF796
:1053F00077FF286801F016FBFFF76AFD02460323DA
:10540000322135200094FCF730FF1A4C207830B15F
:1054100019A232215A20FCF763FF207820B917A285
:1054200032215A20FCF75CFFBDE8F840FCF76ABE69
:10543000444D50004E6F726D616C0000456E636F9D
:105440004C45465400000000040000202D000000E0
:105450002B000000456E636F52494748540000001E
:1054600008000020416E676C650000000C00002001
:1054700000008080000000204F4646004F4E200074
:105480002DE9F041564C0A460746544E1046216815
:1054900001F030FB616801F09BF90146514801F0D1
:1054A00029FB05463146384601F024FB294601F028
:1054B0008FF96060BDE8F0812DE9F34F484D084653
:1054C00083B02968884601F015FB0446A869414667
:1054D000029001F00FFBA96801F0D8FB214601F012
:1054E00077F905F12C048346E0684146009001F00D
:1054F00001FB8246414601F0FDFA676806463946DF
:10550000E86801F0CDFBD4F80890494601F0C8FBEB
:10551000414601F0EFFA216801F05AF9314601F0F5
:1055200057F980465046394601F0B0FB06465046D2
:10553000494601F0ABFB82462969009801F048F921
:105540008146039F4046696901F042F90146009097
:10555000404601F0A5F901905046009901F0A0F9EC
:1055600000905946384601F09BFB074601460198DA
:1055700001F0C0FA594601F02BF98346A86039467C
:10558000009801F0B7FA029901F022F9A8614146AA
:10559000019801F0AFFA414601F078FB0546206022
:1055A0003146019801F0A6FA314601F06FFB06463C
:1055B00060602946009801F09DFA514601F066FBB3
:1055C000A0603146009801F095FA494601F05EFB73
:1055D000E06005B05846BDE8F08F0000CDCC4C3DF2
:1055E000C00000203333733F704710B54C1084EA7D
:1055F000530404D54042C1F1000138BF491E1B428B
:1056000004D55242C3F1000338BF5B1E00F0C6F858
:1056100014F0804F04D04042C1F1000138BF491E50
:1056200014F0004F04D05242C3F1000338BF5B1E98
:1056300010BD00000FB4044910B503AA029800F091
:105640007DF910BC5DF814FB440000202DE9F04109
:105650000E460446002020622046E168884730B3A9
:10566000252805D0D4E901219047206A401CF2E7A3
:10567000E168204600278847050018D0A5F14100C1
:10568000192802D820354FF40067324629462046B3
:105690002760FAF787FD40B1012804D0F61D26F0F7
:1056A00007060836D8E7361DD6E72846DAE7206A27
:1056B000BDE8F0812DE9F041064600241068752907
:1056C000314616A510D0AFF30080002802DA404220
:1056D00013A507E031688A0701D512A502E0490742
:1056E00004D511A5012401E0AFF3008000210A22B6
:1056F00006F1240709E0B0FBF2FCB0FBF2F302FB79
:105700001C00303078541846491C0028F3D1234639
:105710002A463046BDE8F04100F0B7B8000000006E
:105720002D0000002B0000002000000040EA0103D3
:1057300010B59B070FD1042A0DD310C808C9121F3A
:105740009C42F8D020BA19BA884201D9012010BD74
:105750004FF0FF3010BD1AB1D30703D0521C07E041
:10576000002010BD10F8013B11F8014B1B1B07D1A5
:1057700010F8013B11F8014B1B1B01D1921EF1D116
:10578000184610BD02F0FF0343EA032242EA024238
:1057900000F0E8B8704770477047704753EA020C52
:1057A00000F069802DE9F04B4FF00006002B1FBF81
:1057B000B3FA83F503FA05F424FA05F65E4012BF46
:1057C0001643B2FA82F502FA05F4C5F120051EBFB0
:1057D00022FA05FC44EA0C04203556EA044C4FEA50
:1057E000144418BF641C4FF000084FF000099042A9
:1057F00071EB030C39D3002919BFB1FA81F701FA13
:1058000007F6B0FA80F700FA07F6C7F120071EBFC7
:1058100020FA07FC46EA0C062037B6FBF4FCA7EB9F
:105820000507103F07F01F0BCBF120060CFA0BFB0E
:105830002CFA06F644BFB3460026202FA4BF5E46CE
:105840004FF0000B5BEA060C08BF4FF0010B19EBA1
:105850000B09ABFB027C48EB0608C01B06FB02CC25
:105860000BFB03CC71EB0C01C1E70B460246414632
:105870004846BDE8F08B13B54FF000004FF0000133
:10588000AFF30080BDE81C4070472DE9F0470D469E
:1058900099469246044600F124080168880604D51A
:1058A000E06921F01001216000E00120A84201DD43
:1058B000471B00E00027A1697A1902EB0900081ACA
:1058C000A0612078C00602D42046AFF300800026F5
:1058D00008E0D4E901211AF806009047206A401C2C
:1058E000761C20624E45F4DB2078C0060AD520469F
:1058F000AFF3008006E0D4E9012130209047206A10
:10590000401C2062381EA7F10107F4DC07E0D4E94F
:10591000012118F805009047206A401C2062281ECB
:10592000A5F10105F3DC2046AFF3008020780006E6
:1059300002D50220BDE8F0870120FBE7074B70B5D8
:105940000D467B4400F033F80446284600F042F848
:1059500010B14FF0FF3070BD204670BD2DC3FFFF6A
:105960004FF000020429C0F0128010F0030C00F088
:105970003780CCF1040CBCF1020F18BF00F8012BEA
:10598000A8BF20F8022BA1EB0C0100F029B85FEAB8
:10599000C17C24BF00F8012B00F8012B48BF00F8A0
:1059A000012B704701694A1C02610878704700B5F5
:1059B0008FB0CDE901310021059105497944CDE948
:1059C000031011466846FFF741FE0FB000BD00000E
:1059D000E5FFFFFF007B00F0800070474FF0000202
:1059E00000B5134694469646203922BFA0E80C50D5
:1059F000A0E80C50B1F12001BFF4F7AF090728BFB0
:105A0000A0E80C5048BF0CC05DF804EB890028BF2B
:105A100040F8042B08BF704748BF20F8022B11F054
:105A2000804F18BF00F8012B7047000000487047F6
:105A3000680600207546FFF7F9FFAE460500694687
:105A4000534620F00700854618B020B5FAF7B4FC9D
:105A5000BDE820404FF000064FF000074FF000086F
:105A60004FF0000B21F00701AC46ACE8C009ACE8F0
:105A7000C009ACE8C009ACE8C0098D46704710B554
:105A80000446AFF300802046BDE81040FAF79CBB07
:105A9000490050EAC12018BF04204A0D18BF40F049
:105AA000010040F2FF72B2EB515F08BF40F002000C
:105AB000012808BF052070472DE9F0414F1E00EB7B
:105AC000C7010446D1E9000115461E4637F006021B
:105AD0000DD02A46334600F05BFC7F1E04EBC70363
