:020000040800F2
:10000000085B00205D02000835350008952C0008CB
:10001000833200086509000855460008000000000A
:100020000000000000000000000000009D0100082A
:10003000C909000800000000F90100086D3F000830
:1000400077020008770200087702000877020008AC
:10005000770200087702000877020008770200089C
:10006000770200087702000877020008770200088C
:10007000770200087702000877020008770200087C
:100080007702000877020008770200088D0900084F
:10009000690900087509000881090008CB090008F2
:1000A000770200087702000877020008770200084C
:1000B0002D40000839400008770200087702000848
:1000C000770200087702000877020008770200082C
:1000D00077020008A54500087702000877020008AB
:1000E000770200087702000877020008770200080C
:1000F00077020008770200087702000877020008FC
:1001000077020008770200087702000877020008EB
:1001100025430008314300087702000877020008F1
:1001200077020008770200087702000877020008CB
:10013000770200087702000877020008BD0900086E
:1001400099090008A5090008B1090008770200080C
:10015000770200087702000877020008770200089B
:10016000770200087702000877020008770200088B
:1001700077020008770200087702000800000000FC
:100180007702000877020008DFF80CD000F0A4F92D
:1001900000480047B15A0008085B00202C4B196842
:1001A0000868B0E8F04F80F30988BFF36F8F4FF015
:1001B000000080F3118870470000000008480068C4
:1001C000006880F308884FF0000080F3148862B65E
:1001D00061B6BFF34F8FBFF36F8F00DF00BF00BF6B
:1001E00008ED00E0DFF80C00016841F470010160E7
:1001F000704700BF88ED00E0EFF30980BFF36F8F19
:10020000134B1A681EF0100F08BF20ED108A20E96A
:10021000F04F106009B44FF0500080F31188BFF325
:100220004F8FBFF36F8F06F0AFFB4FF0000080F3EE
:10023000118809BC19680868B0E8F04F1EF0100F6B
:1002400008BFB0EC108A80F30988BFF36F8F704746
:1002500028000020EFF30580704700000648804723
:1002600006480047FEE7FEE7FEE7FEE7FEE7FEE79B
:10027000FEE7FEE7FEE7FEE71D40000889010008F3
:100280002DE9F05F0546002092469B4688460646CB
:10029000814640241BE0284641464746224600F05E
:1002A00082F853465A46C01A914110D31146184657
:1002B000224600F069F82D1A67EB01084F462246E6
:1002C0000120002100F060F817EB00094E41201ECC
:1002D000A4F10104DFDC484631462A464346BDE826
:1002E000F09F40EA01039B0703D009E008C9121FF1
:1002F00008C0042AFAD203E011F8013B00F8013BE0
:10030000521EF9D27047D2B201E000F8012B491E0B
:10031000FBD270470022F6E710B513460A460446A2
:100320001946FFF7F0FF204610BD00F0004230F004
:1003300000400AD0C10D01F56071C0F3160042EA19
:100340000151C20840071143704700200146704721
:1003500001F0004330B421F0004150EA010206D020
:100360000A0DA2F56072C1F31301002A02DC30BC51
:1003700000207047440F44EAC104C100E01830BCBB
:1003800000EBC25000F01FB8202A04DB203A00FA2C
:1003900002F1002070479140C2F1200320FA03F3DC
:1003A000194390407047202A04DB203A21FA02F0DA
:1003B0000021704721FA02F3D040C2F1200291409F
:1003C0000843194670470029A8BF7047401C4900E0
:1003D00008BF20F00100704710B4B0FA80FC00FAAA
:1003E0000CF050EA010404BF10BC704749B1CCF1D5
:1003F000200421FA04F411FA0CF118BF0121214361
:100400000843A3EB0C01CB1D4FEA00614FEA10201B
:1004100042BF002010BC704700EBC35010440029BD
:10042000A4BF10BC7047401C490008BF20F0010069
:1004300010BC70472DE9F04D00231A461B1A8A4163
:1004400003DB00200146BDE8F08DC1F30A52C1F381
:10045000130141F480154FF0000BD10702D10018B1
:100460006D41521E0027044640F2FF11384601EB51
:10047000620A3E468046024600204FF48011FFF794
:1004800092FFC2197141BB1846EB0100B4EB030C9B
:1004900075EB000C04D3E41A65EB000517460E4615
:1004A000241908F101006D4180463428E3DDF91973
:1004B00046EB0600091BA84103D24FF0FF3213465A
:1004C00001E0002213461BEB070046EB0A51BDE892
:1004D000F04D00F013B80000064C074D06E0E06850
:1004E00040F0010394E8070098471034AC42F6D37B
:1004F000FFF74EFE747600089476000810B5141EBF
:1005000073F1000408DA401C41F1000192185B41CC
:100510001A4301D120F0010010BD2DE9F04D9246A3
:100520009B4611B1B1FA81F202E0B0FA80F22032BA
:100530009046FFF729FF04460F4640EA0A0041EAC9
:100540000B0153465A46084313D0114653EA0100A3
:1005500019D0C8F140025046FFF725FF05460E4668
:10056000504659464246FFF70FFF084305D0012089
:1005700004E020463946BDE8F08D0020054346EAF8
:10058000E0762C4337430A986305E40AA0EB0800A1
:100590000022FD0A44EA47540A3002D500200146F1
:1005A000E9E7010510196941DDE9084500196941CC
:1005B000BDE8F04DA2E72DE9FE4F804681EA030039
:1005C000C00F0C46009021F0004123F00045B8EB2D
:1005D0000200A94105D24046214690461C460B46E2
:1005E000024623F00040104347D0270DC7F30A000E
:1005F000C3F30A510290401A019040286BDAC3F30A
:10060000130040F4801B0098924620B10023D2EBE7
:10061000030A63EB0B0B01985946C0F140025046A8
:10062000FFF7B2FE06460D4650465946019A00F0C5
:1006300087F910EB08006141002487EA115284EA2F
:10064000E7731A4340D0009A62B3019A012A4FEA35
:10065000075215DC001B61EB02014FF0004202EA79
:100660000752CDE90042001C41F5801132462B466D
:10067000FFF753FF03B0BDE8F08F40462146F9E78E
:10068000001B61EB0201001C41F5801300185B4167
:100690002018A2F5001747EB030140EAD570B61900
:1006A0006D4111E06D084FEA360645EAC0754FEA24
:1006B0000752001B61EB0201001C41F58011490843
:1006C0004FEA30000019514132462B4603B0BDE8D5
:1006D000F04FFFF713BF0098012240000023D0EB3A
:1006E000020263EBE073009821464FEAE074B8EB36
:1006F000000061EB0401E9E783F000435BE781F070
:10070000004158E72DE9FE4F81EA030404F000445C
:1007100021F0004100944FF0000B23F0004350EA19
:1007200001045ED052EA03045BD0C3F30A54C1F360
:100730000A552C44A4F2F3340194A0FB0254C1F3F3
:10074000130141F48011C3F3130343F4801301FB3D
:10075000024400FB034E840A970A44EA815447EAA4
:100760008357A4FB076802958D0A05FB07854FEAAE
:10077000932C04FB0C542705029D4FEA065847EAC8
:100780001637B5EB08056EEB070C870E920E47EA9D
:10079000811742EA8312A7FB0201B6EB0B0164EB5F
:1007A00000042B0D43EA0C335E1844EB1C50DA4670
:1007B0005146E7FB0201C5F313044FEA0B3343EA4A
:1007C00014534FEA0432019C43EA0603A4F10C04DB
:1007D0000294009CCDE900B4FFF79FFE03B0BDE892
:1007E000F08F00200146F9E72DE9F04D81EA03047E
:1007F00004F0004B21F0004514464FF0000A23F0AE
:10080000004150EA050220D054EA01021DD0C5F390
:100810000A570246C5F31303C1F31300C1F30A5686
:1008200040F4801543F48013A7EB0608101BD6464E
:1008300008F2FD3873EB050002D308F1010801E06E
:1008400092185B41B8F1000F03DA00200146BDE8C1
:10085000F08D00204FF48011064684460EE0171BF1
:1008600073EB050705D3121B63EB050306434CEA44
:10087000010C49084FEA300092185B4150EA010729
:10088000EDD152EA030012D082EA040083EA0501A6
:10089000084305D0101BAB4106D20122002306E01D
:1008A00000224FF0004302E06FF0010253101AEBF8
:1008B00006004CEB085110EB0A0041EB0B01BDE8C0
:1008C000F04DFFF71BBE0EB5C10F80EAE070084483
:1008D000CA07002140F233438DE80E000A460B465A
:1008E000FFF71BFE03B000BD0EB540F2334102918D
:1008F0000021CDE900110A460B46FFF70EFE03B0BA
:1009000000BD70B5C1F30A5201F000450024C1F3E7
:10091000130140F2FF3341F480119A4201DA0020C2
:1009200070BD40F233439A42A2F2334203DC52429A
:10093000FFF739FD00E090402C43F1D0404270BDFC
:10094000202A06DBCB17203A41FA02F043EAE07393
:1009500006E041FA02F3D040C2F120029140084380
:1009600019467047FEE70000014800F04EBA00004B
:1009700028010020014800F048BA000028010020AA
:10098000014800F042BA000028010020014800F0B0
:100990003CBA000028010020014800F036BA0000EF
:1009A00050010020014800F030BA00005001002042
:1009B000014800F02ABA000050010020014800F070
:1009C00024BA0000500100207047802000F00CBEC7
:1009D00072B6FEE710B5444CA288002A5CD060884D
:1009E000002859D02188002956D0A1F2AA5140F2FE
:1009F000DC53642900D82380A0F2AA50642800D8D0
:100A00006380E088A0F2AA50642800D8E38040F216
:100A10000E60824205D8E08840F2AA51884200D395
:100A2000A380324ADFED321A134692F931109FED5E
:100A3000312A93F9300093ED101AD3ED0F0A93ED9C
:100A4000110A012901D0E9B11EE001281CD120883A
:100A500002EE900AF8EE622A32EEE13AC3EE022A82
:100A600022EE811A82ED031A608801EE100AB8EEB8
:100A7000411A71EE612A82EE821A61EE200AC2EDFD
:100A8000040A24E0012808D09FED1B0A82ED030A26
:100A900082ED040A82ED050A10BD208802EE900A5C
:100AA000F8EE622A32EEE13AC3EE022A22EE811A11
:100AB00082ED011A608801EE100AB8EE411A71EE5B
:100AC000612A82EE821A61EE200AC2ED020AE088F3
:100AD00000EE900AF8EE600A70EEE10A80EE821AEB
:100AE00021EE000AD6E70000A8560020C84C0020DE
:100AF0000080BB440000FA430000000090F8202072
:100B0000012A07D0022A05D0416A41F480214162BE
:100B100001207047006842690A4342610020704723
:100B2000F0B590F820500468A468012D05D0022D7E
:100B300003D0416A41F4802153E014F0406F01D1A9
:100B4000E5004BD5C4F30164022C03D9416A41F49A
:100B5000000146E00125A5401D608B684FF4C0757B
:100B60009BB1CE6833434E6843EAC603066805EB83
:100B70000417F3514FF4C273076803EB04130E69B3
:100B8000FE50097D012905D009E00E88CB6843EAB3
:100B90004653EBE70168CE5846F48076CE50117983
:100BA000D2F805304FF4C67641EA0323016806EB1C
:100BB00004168B511178D2F801204FF4C47341EA26
:100BC0000221026803EB0413D150006805EB041105
:100BD000425842F0010242500020F0BD416A41F407
:100BE000001141620120F0BD10B590F82020012ACB
:100BF00007D0022A05D0416A41F4802141620120D8
:100C000010BD3B48D0F8002242F00102C0F800229B
:100C1000D0F8002222F47C52C0F80022D0F8002242
:100C20004B6A42EA0322C0F800220A7D02F01F0349
:100C300001229A40D0F81C329343C0F81C32CB6991
:100C4000B3B9D0F80C329343C0F80C328C894B689E
:100C500064F31F434C6900EBC404C4F840320C89B0
:100C60000B6864F31F434C6900EBC404C4F84432BE
:100C7000CB69012B16D1D0F80C321343C0F80C32DB
:100C80000C884B6864F31F434C6900EBC404C4F840
:100C900040320C89CB6864F31F434C6900EBC404F9
:100CA000C4F844328B69002BD0F804320ED01343C1
:100CB000C0F804320B69002BD0F8143208D013436B
:100CC000C0F81432096A012904D008E09343EFE721
:100CD0009343F5E7D0F81C121143C0F81C12D0F86A
:100CE000001221F00101C0F80012002010BD000028
:100CF00000640040704730B590F82040012C05D0CA
:100D0000022C03D0416A41F480215DE0046800298F
:100D100055D02469A40754D04FF4D874056804EB67
:100D200001142D5915F00405956005682D594ED014
:100D3000ED08556005682C5904F00204D4604FF4A6
:100D4000DA74056804EB01142D5905F00F051561DF
:100D500005682D59C5F30725956105682C59240CA4
:100D600054614FF4DC72046802EB0112A4581C7049
:100D70000468A458240A5C700468A458240C9C706D
:100D80000468A258120EDA704FF4DE72046802EBA7
:100D90000112A4581C710468A458240A5C710468E8
:100DA000A458240C9C710468A258120EDA710068D1
:100DB00081B1016941F020010161002030BDE4688A
:100DC000A8E7416A41F400114162012030BD6D0D78
:100DD0001560AFE7C16841F02001C160EDE7024650
:100DE000002092F82010012901D002290CD11168AD
:100DF0008A68520100D501208A68120100D5401C82
:100E00008968C90000D5401C70472DE9F05F054690
:100E1000006800244669D0F804908768D0F80CB0C8
:100E2000D0F810A0D0F81880F10748D0F90714D0F6
:100E300001218160B80703D5284600F08EFA0CE046
:100E4000780702D54FF4006407E0380702D54FF465
:100E5000805402E0284600F07FFAF80516D529688C
:100E60004FF480708860B80503D5284600F077FA03
:100E70000CE0780502D544F4005407E0380502D5AB
:100E800044F4804402E0284600F068FAF80316D5DE
:100E900029684FF480308860B80303D5284600F0F5
:100EA00060FA0CE0780302D544F4004407E038030C
:100EB00002D544F4803402E0284600F051FA3007AD
:100EC00007D55FEACB6004D52968102044F400748C
:100ED000C86070074FF0080707D55FEA0B7004D5AC
:100EE0002868C760284600F0C9F9B00706D5286809
:100EF000C068800702D0284600F0C2F9700607D506
:100F00005FEACA6004D52968102044F4806408614F
:100F1000B00607D55FEA0A7004D52868076128463D
:100F200000F0ECF9F00606D528680069800702D0C9
:100F3000284600F0E4F9B00308D55FEAC96005D59A
:100F4000296810204860284600F0DAF9F00307D538
:100F50005FEA097004D528684760284600F002FA65
:100F6000300446D55FEA497040D5F00504D55FEA04
:100F7000C87001D044F00104B00504D55FEA887060
:100F800001D544F00204700504D55FEA487001D52C
:100F900044F00404300529D518F0700F26D008F06D
:100FA0007000402815D006DC102809D020280AD06F
:100FB000302816D10AE050280ED0602811D10EE05A
:100FC00044F008040DE044F010040AE044F020046A
:100FD00007E044F0400404E044F0800401E044F4FD
:100FE00080742868816921F070018161296804207A
:100FF0004860002C05D0686A204368622846FFF7E5
:1010000079FEBDE8F09F70B5040003D094F820008D
:1010100010B104E0012070BD204600F081F8206886
:10102000016841F00101016000F0D2FB0546052690
:1010300004E000F0CDFB401B0A2811D8206840686E
:10104000C007F6D02068016821F00201016000F0BD
:10105000BFFB05460BE000F0BBFB401B0A2806D98E
:10106000606A40F40030606284F82060D2E7206853
:1010700040688007EFD4207E0128206801683DD0B9
:1010800021F080010160607E01282068016838D06D
:1010900021F040010160A07E01282068016833D062
:1010A00021F020010160E07E0128206801682ED037
:1010B00041F010010160207F01282068016829D0DB
:1010C00021F008010160607F01282068016824D0B8
:1010D00021F004010160D4E902010843D4E90412BB
:1010E000114308436168491E08432168C861002014
:1010F0006062012084F82000002070BD41F0800172
:10110000C0E741F04001C5E741F02001CAE721F006
:101110001001CFE741F00801D4E741F00401D9E71D
:10112000F0B587B0044614216846FFF7F3F84E493E
:101130004E4ADFF830E10868D4F800C04B4B022477
:101140000325092610320027401CF4453BD10860D6
:10115000012807D1106840F000701060106800F09E
:1011600000700590186840F0010018601868694622
:1011700000F0010005904FF4C0508DE89100CDE9DA
:1011800003563B4800F03CFA00220221132000F0F5
:10119000CDFB132000F0BDFB00220221142000F043
:1011A000C5FB142000F0B5FB00220221152000F041
:1011B000BDFB152000F0ADFB00220221162000F03F
:1011C000B5FB16204AE0DFF8ACE0F44548D1D2F890
:1011D00000C04CF0806CC2F800C0D2F800C00128FA
:1011E0000CF0806CCDF814C0086007D1106840F096
:1011F00000701060106800F000700590186840F0F2
:10120000020018601868694600F0020005904FF46B
:1012100040508DE89100CDE90356174800F0F0F9F1
:10122000002205213F2000F081FB3F2000F071FBF0
:1012300000220521402000F079FB402000F069FBEE
:1012400000220521412000F071FB412000F061FBEC
:1012500000220521422000F069FB422000F059FBEA
:1012600007B0F0BD006400400000002030380240AC
:101270000000024000680040000402407047000087
:1012800070B51A49054688B0022008801848854282
:1012900019D18B1C6A460021FFF72DFD029890B9E9
:1012A00012496846891C04F049FB124E0024C4EB25
:1012B000C40000EB441006EB800002F00DFB641C40
:1012C000A4B2082CF3D30C4885420DD1074B6A46D3
:1012D0000A330021FFF70FFD0298042804D10349C7
:1012E00068460A3104F020FA08B070BDE000002022
:1012F00028010020244D0020500100207047704735
:10130000704770B5044690F82000012804D0606A48
:1013100040F40020606217E0022084F8200020687A
:10132000016821F00101016000F052FA05460DE06C
:1013300000F04EFA401B0A2808D9606A40F40030D9
:101340006062052084F82000012070BD206840689C
:10135000C007EDD1606270BD70477047704770473D
:101360007047704770472DE9F0410446876D00F0E3
:101370002FFA054694F835000026022806D0802072
:10138000606584F834600120BDE8F0812068016860
:1013900021F0160101602068416921F0800141615E
:1013A000206C08B9A06C20B12068016821F0080108
:1013B00001602068016821F0010101600CE000F08B
:1013C00007FA401B052807D920206065032084F810
:1013D000350084F83460D7E720680068C007EED194
:1013E00094F85C103F208840B860012084F83500F4
:1013F00084F834600020C7E790F83510022903D044
:101400008021416501207047052180F83510006872
:10141000016821F00101016000207047406D7047B4
:1014200070B5044600F0D4F90546601C02D00448AB
:101430000078044400F0CCF9401BA042FAD370BD00
:10144000180000202DE9F04FDFF8F0A089460022B7
:101450004FF0010B4FF00F0C0BFA02F609EA0603EE
:10146000B34265D122F003045444D4F80818950718
:101470002F0F0CFA07F505EA01083149884201D11E
:10148000002123E02F49884201D101211EE02E498D
:10149000884201D1022119E02C49884201D103215F
:1014A00014E02B49884201D104210FE029498842E8
:1014B00001D105210AE02849884201D1062105E031
:1014C0002649884201D1072100E00821B940414561
:1014D00015D1234F3968994339603F1D39689943C5
:1014E00039601F4F0C373968994339603F1F39689D
:1014F00099433960D4F80818A943C4F80818036858
:1015000054000321A1408B430360D30800EB830305
:101510001D6A5407E70E0CFA07F4A5431D62C36861
:101520008B43C3604368B343436083688B438360EA
:10153000521C102A90D3BDE8F08F0000003001400B
:10154000000002400004024000080240000C02407B
:10155000001002400014024000180240001C02402B
:10156000003C014070B51E4C80280DD16169C0055A
:101570002161426AE06840F27123584302EB001097
:101580006061A060401AA0806078002501210128D8
:10159000A08840F6980205D0904202D36170A570F1
:1015A000257070BD904202D3A570217070BDA0F26D
:1015B000B63140F24C42914210D80A4AA17822F842
:1015C0001100491CC8B2A0700828EFD30549420099
:1015D00001F11400FEF785FEA57070BD657070BD49
:1015E0000001002094560020044910B50A68024208
:1015F00002D00860FFF7B6FF10BD0000143C0140A8
:101600002DE9F84FDFF89C910022A9F1040B032784
:101610004FF00F0C09F1040AABF1040E01250B6821
:1016200095402B40AB426ED10C7904F00304012CA1
:1016300001D0022C15D18668540007FA04F826EA76
:101640000806D1F80C8008FA04F848EA0608C0F841
:1016500008804468AC430D79C5F3001595402543D7
:1016600045600C79E443A40708D0C568540007FA24
:1016700004F6B5438E68A6402E43C6600C7904F08C
:101680000304022C11D1D40800EB8406356A5407F8
:10169000E40E0CFA04F825EA0805D1F8108008FADF
:1016A00004F848EA0508C6F820800568540007FADF
:1016B00004F6B5430E7906F00306A6402E430660F5
:1016C0004C6814F4403F66D0374C256845F480459B
:1016D0002560246822F0030504F480440094334C10
:1016E00005EB0408D8F808589407260F0CFA06F4FE
:1016F000A5432F4CA04201D1002424E02D4CA04250
:1017000002D101241FE046E02B4CA04201D102246B
:1017100019E02A4CA04201D1032414E0284CA04235
:1017200001D104240FE0274CA04201D105240AE096
:10173000254CA04201D1062405E0244CA04201D151
:10174000072400E00824B4402C43C8F80848D9F81E
:1017500000404D464E689C43F60200D51C432C6069
:10176000DAF8004055464E689C43B60200D51C434B
:101770002C60DBF800405D464E689C43B60300D504
:101780001C432C60DEF8004075464E689C43F6030F
:1017900000D51C432C60521C102AFFF43FAFBDE85B
:1017A000F88F0000083C01404438024000300140FE
:1017B000000002400004024000080240000C024009
:1017C000001002400014024000180240001C0240B9
:1017D00001488068704700001800002002488168B6
:1017E0000278114481607047180000200B4810B542
:1017F000016841F400710160016841F48061016099
:10180000016841F480710160032000F0AFF80F20FF
:1018100000F006F800F050F8002010BD003C024037
:1018200030B505461F4887B00024016841F0020129
:101830000160006806A900F002000590684600F00B
:1018400041F90398A8B100F05DF940001649174A24
:10185000B0FBF1F11648491E026040F2E732C0E9E0
:101860000324C0E90114846100F092FB040003D05A
:1018700015E000F047F9E9E70D4800F007FC040027
:101880000DD11D2000F045F8102D07D20022294669
:101890001D2000F04BF80748056000E0012407B068
:1018A000204630BD4038024040420F000004004056
:1018B000AC0300201C0000200C4882B0016841F4F9
:1018C00080410160006800F4804000900748001FDC
:1018D000016841F0805101600068002200F08050F2
:1018E00000900F21901E02B000F020B84438024052
:1018F00000280DDB00F01F0201219140400980000B
:1019000000F1E020C0F88011BFF34F8FBFF36F8F5D
:101910007047002809DB00F01F02012191404009B7
:10192000800000F1E020C0F800117047F0B40E4BC9
:101930001B68C3F30223C3F10704042C00D9042459
:101940001D1D072D01D2002300E0DB1E012606FA33
:1019500004F56D1E0D409D409E40761E164045EAE2
:101960000601F0BC03F0A2B80CED00E0064A00F05E
:10197000070110684FF6FF03184040EA01200349B1
:1019800008431060704700000CED00E00000FA050D
:101990002DE9F0470D46040065D0DFF81491D9F821
:1019A0000000EFB200F00700A84207D289F80070EB
:1019B000D9F8000000F00700A84254D120683D4E3D
:1019C000810712D5400703D5306840F4E0503060FD
:1019D0002078000703D5306840F4604030603068FC
:1019E000A16820F0F000084330602078C0072DD0B7
:1019F000304960680839012812D0022813D0032822
:101A000011D00968890700292DDA316821F0030116
:101A100001433160FFF7DCFE804641F2883A0EE078
:101A200009688903EFE709688901ECE7FFF7D0FE51
:101A3000A0EB0801514502D90320BDE8F0873068CA
:101A4000616800F00C00B0EB810FEFD1D9F8001005
:101A5000484601F00701A94207D90770006800F065
:101A60000700A84201D00120E7E72078400705D50C
:101A70003068E16820F4E0500843306020780007C7
:101A800006D53068216920F4604040EAC10030602A
:101A900000F058F83168084AC1F30311515CC8409E
:101AA0000649086006480068FFF7BAFE0020C4E750
:101AB000003C024008380240F07400082400002076
:101AC0001C0000200F2202600C4A136803F003037D
:101AD0004360136803F0F0038360136803F4E0537A
:101AE000C36012684FF4E05303EAD2020261044873
:101AF000006800F0070008607047000008380240E6
:101B0000003C02400448054900680968044AC1F3E2
:101B10008221515CC84070472400002008380240F0
:101B2000007500080448054900680968044AC1F3C3
:101B30004231515CC8407047240000200838024000
:101B400000750008154810B5006810F00C01144825
:101B500013D0431004290FD008290ED10F4C241F95
:101B6000216801F03F022168490207D52068C0F3CF
:101B70008810A0FB030106E0184610BD2168C1F3E0
:101B80008811A1FB00010023FEF77AFB2168C1F355
:101B90000141491C4900B0FBF1F010BD083802407A
:101BA0000024F4002DE9F84F040075D02078DFF808
:101BB00038A3C007AAF1040548D00AF1040001685F
:101BC000C1F38101012908D00068C0F38100022817
:101BD0000AD1DAF80000400206D52868800335D51E
:101BE00060680028E1D031E06068B0F5803F10D037
:101BF000B0F5A02F286810D020F480302860286825
:101C000020F4802028606068A0B1FFF7E1FD06465F
:101C10000CE0286840F48030F4E740F4802028602D
:101C2000F7E7FFF7D5FD801B642871D8286880038B
:101C3000F7D50BE0FFF7CCFD064604E0FFF7C8FD43
:101C4000801B6428F1D828688003F7D42078DFF857
:101C50009C9280074FF0000B3DD5A348001D016802
:101C600011F00C0F08D00068C0F3810002280AD1DF
:101C7000DAF80000400206D42868800715D5E0682D
:101C8000012809D111E0E068B8B10120C9F80000CD
:101C9000FFF79EFD064605E022E1FFF799FD801B58
:101CA0000228C2D828688007F7D52868216920F063
:101CB000F80040EAC10028600DE0C9F800B0FFF765
:101CC00087FD064604E0FFF783FD801B02281FD82E
:101CD00028688007F7D42078000722D5824F8448EF
:101CE0006169703771B101210160FFF771FD06462E
:101CF00004E0FFF76DFD801B022809D838688007D3
:101D0000F7D50EE0C0F800B0FFF762FD064605E02B
:101D100082E0FFF75DFD801B02287DD838688007D0
:101D2000F7D42078400765D56F484FF000083C3065
:101D30000068C0000BD46C483C30016841F0805111
:101D4000016000684FF0010800F080500090694F7A
:101D50003868C0050FD4386840F480703860FFF7E9
:101D600037FD064604E0FFF733FD801B022853D8F9
:101D70003868C005F7D55C4FA0686C3701280FD0D4
:101D80000528386810D020F001003860386820F04D
:101D900004003860A068B0B1FFF71AFD06460EE0F7
:101DA000386840F00100F4E740F004003860F7E7DD
:101DB000FFF70EFD811B41F28830814263D83868FD
:101DC0008007F5D50DE0FFF703FD064606E0FFF7B7
:101DD000FFFC811B41F28830814254D8386880076B
:101DE000F5D4B8F1000F05D03F483C30016821F030
:101DF00080510160A069B8B33B49091D0968C1F36E
:101E00008101022946D00228584606D0C9F8600050
:101E1000FFF7DEFC044639E035E04F46C9F86000C4
:101E2000FFF7D6FC064604E0FFF7D2FC801B022831
:101E300029D828688001F7D4D4E907010843A16AAA
:101E40002D4A490802EB0141626A41EA82110843C6
:101E500094F82C1040EA0161CAF80010012038669D
:101E6000FFF7B6FC044605E03CE0FFF7B1FC001BC1
:101E7000022808D828688001F7D533E0FFF7A8FCCE
:101E8000001B022802D90320BDE8F88F28688001D2
:101E9000F4D427E00128F7D0DAF80000E26900F472
:101EA000800191421CD1226A00F03F01914217D17A
:101EB00047F6C071626A0140B1EB821F10D1A26A7D
:101EC0004FF0FF3300F4403103EB5202B1EB024F0D
:101ED00006D194F82C1000F07060B0EB016F01D0C7
:101EE0000120D1E70020CFE704380240000047423C
:101EF000800E4742007000400000FFFF70477047AF
:101F000070B590F83C20012A32D0012580F83C5071
:101F1000022280F83D2002685368946823F070061E
:101F20000B6833435360134B02689A4214D0B2F1EA
:101F3000804F11D0104B9A420ED0104B9A420BD0CA
:101F40000F4B9A4208D00F4B9A4205D00E4B9A4243
:101F500002D00E4B9A4204D1496824F08003194301
:101F6000916080F83D50002180F83C10084670BD1B
:101F7000022070BD00000140000400400008004045
:101F8000000C0040000401400040014000180040E7
:101F900010B5040003D094F83D0010B107E0012013
:101FA00010BD002084F83C00204600F01FF80220FD
:101FB00084F83D00211D206802F044F8012084F8D7
:101FC000460084F83E0084F83F0084F8400084F81E
:101FD000410084F8420084F8430084F8440084F807
:101FE000450084F83D00002010BD000008B50068E1
:101FF0002149B0F1804F0BD0204B0A1D984219D1D6
:10200000106840F480301060106800F480301BE0ED
:10201000086840F0010008600868002200F0010034
:10202000009005211C20FFF781FCBDE808401C2022
:10203000FFF76FBC124B984208D1106840F4003093
:102040001060106800F40030009008BD0D4A904206
:1020500007D1086840F080000860086800F0800040
:10206000F2E7094A9042F0D1086840F480700860B5
:10207000086800F48070E7E7403802400040014003
:1020800000440140001C00400020004090F83D103A
:10209000012901D001207047022180F83D1001681C
:1020A000CA6842F00102CA6000681149884214D02F
:1020B000B0F1804F11D00F4988420ED00E498842AE
:1020C0000BD00E49884208D00D49884205D00D49F1
:1020D000884202D00C49884204D1816801F007018E
:1020E000062903D0016841F001010160002070471A
:1020F000000001400004004000080040000C0040C7
:1021000000040140004001400018004070B5044642
:1021100090F83C000025012817D0012684F83C6087
:10212000022084F83D002068826822F0770222F4C1
:102130007F4282600868502838D00DDC20284FD0BC
:1021400005DC90B3102811D14AE0022070BD302880
:1021500046D040280AD13BE060282FD070280DD00F
:10216000B0F5805F03D0B0F5005F12D0012584F890
:102170003D60002084F83C00284670BDCB68D1E962
:102180000121206801F0CFFF2068816841F07701CC
:1021900009E0CB68D1E90121206801F0C4FF206883
:1021A000816841F480418160E1E719E0CA684968CB
:1021B000206802F08DF85021206806E0CA6849685E
:1021C000206802F096F86021206801F0B6FFCEE7A3
:1021D000CA684968206802F07BF840212068F4E76B
:1021E000226801461046F0E7704770B50446006863
:1021F00001694FF00005C943890715D4C168C94377
:10220000890711D4E91E01610120207720688069C7
:102210008007204602D0FFF7E7FF04E000F0F6F861
:10222000204600F088F9257720680169C9434907ED
:1022300017D4C168C943490713D46FF00401016181
:10224000022020772068806910F4407F204602D069
:10225000FFF7CAFF04E000F0D9F8204600F06BF960
:10226000257720680169C943090716D4C168C943A5
:10227000090712D46FF0080101610420207720685B
:10228000C0698007204602D0FFF7AEFF04E000F0EF
:10229000BDF8204600F04FF9257720680169C94351
:1022A000C90617D4C168C943C90613D46FF0100119
:1022B0000161082020772068C06910F4407F204623
:1022C00002D0FFF791FF04E000F0A0F8204600F0F4
:1022D00032F9257720680169C943C90708D1C16867
:1022E000C943C90704D1891E0161204600F08CF959
:1022F00020680169C943090609D4C168C9430906B0
:1023000005D46FF0800101612046FFF7F7FD2068DA
:102310000169C943490609D4C168C943490605D4BE
:102320006FF040010161204600F0A8F920680169C2
:10233000C94389060BD4C168C943890607D46FF025
:10234000200101612046BDE87040FFF7D8BD70BD97
:1023500070B586B0044614216846FDF7DBFF2448BB
:102360002168244A02230124032581420DD11068EB
:1023700040F0010010601068694600F0010005900F
:1023800004208DE819001C480DE01C4E1C48B14289
:102390000FD1116841F020011160116801F0200196
:1023A000059140211FE0CDE90335FFF729F906B07B
:1023B00070BD144E0925B14209D1116841F02001C8
:1023C0001160116801F020010591B1150BE00E4E6E
:1023D000B142ECD1116841F020011160116801F0A7
:1023E0002001059171158DE81A006946DBE70000B0
:1023F00000400140303802400000024000440140EB
:1024000000140240001C004000200040704770B5DE
:10241000044690F83C0000260D4601280FD001200C
:1024200084F83C006AB1042A1DD0082A2FD00C2A57
:102430003FD00126002084F83C00304670BD0220C9
:1024400070BD206801F082FE2068816941F00801BA
:1024500081612068816921F00401816120688169BE
:102460002A69114311E0206801F0A0FE206881690B
:1024700041F4006181612068816921F4806181619A
:10248000206881692A6941EA02218161D2E72068D6
:1024900001F0C2FE2068C16941F00801C1612068F5
:1024A000C16921F00401C1612068C1692A69114331
:1024B00011E0206801F0E4FE2068C16941F4006188
:1024C000C1612068C16921F48061C1612068C1696E
:1024D0002A6941EA0221C161ACE710B5040003D0CA
:1024E00094F83D0010B107E0012010BD002084F8F1
:1024F0003C00204600F01EF8022084F83D00211D1B
:10250000206801F09FFD012084F8460084F83E0019
:1025100084F83F0084F8400084F8410084F84200C9
:1025200084F8430084F8440084F8450084F83D00B2
:10253000002010BD7047704710B5044649B104290A
:102540000AD008290BD094F8410001280AD00120B4
:1025500010BD94F83E00F8E794F83F00F5E794F8D2
:102560004000F2E70220B1B3042938D0082939D05D
:1025700084F841000122206801F0C8FD1B49206851
:102580001B4A884201D0904203D1436C43F400437C
:1025900043642068884213D0B0F1804F10D01549B1
:1025A00088420DD0144988420AD01449884207D085
:1025B000904205D01249884202D01249884204D183
:1025C000816801F00701062903D0016841F001018B
:1025D0000160002010BDFFE784F83E00CAE784F8E0
:1025E0003F00C7E784F84000C4E700000000014056
:1025F000000401400004004000080040000C0040BE
:10260000004001400018004010B50446006816491B
:10261000884201D1FFF7E2F82068B0F1804F22D163
:102620001249134A08681060124A401C086010885A
:102630001149401C80B21080642812D300231380FB
:102640004888401C80B248803C280AD34B80888848
:10265000401C80B288803C2803D38B80C888401CF3
:10266000C8801088088010BD000400400C010020C4
:1026700018010020FC000020F40000207047704783
:1026800070B5044620680C3050E8001F21F49071AA
:1026900040E80012002AF5D12068143050E8001FED
:1026A00021F0010140E80012002AF5D1206B012839
:1026B00009D120680C3050E8001F21F0100140E8DB
:1026C0000012002AF5D1206840694FF0000540064D
:1026D00015D52068143050E8001F21F0400140E873
:1026E0000012002AF5D1A06B48B10565A06BFEF77A
:1026F0003AFE20B1A06BFEF791FE202806D0E585BA
:10270000202084F83E002563002070BD1020206446
:10271000032070BD70470000F8B5016804460868E2
:10272000CA684B6910F00F0F4FF0000559D003F045
:10273000010602F49077374365D0C10705D0D10573
:1027400003D5216C41F001012164410705D5D9076A
:1027500003D0216C41F002012164810705D5D9071E
:1027600003D0216C41F004012164010707D502F078
:102770002001314303D0216C41F008012164216C18
:1027800000293AD0800604D5900602D5204601F0F3
:1027900004FE20684069216CC0F38010090700D452
:1027A00060B3204601F0D2FD20684069400621D583
:1027B0002068143050E8001F21F0400140E800126A
:1027C000002AF5D1A06BA8B16C490165A06BFEF79A
:1027D00013FE002811D0A06B016D01B0BDE8F040E0
:1027E000084783060FD593060DD52046BDE8F8406F
:1027F00001F0D3BD2046FFF78DFFF8BD2046FFF75F
:1028000089FF2564F8BD266B2023012E79D1C606E9
:1028100077D5D60675D5086848680090486940069F
:1028200040D5A16B086840680004000CEAD0A28D76
:102830008242E7D9E085C869B0F5807F2DD0206855
:102840000C3050E8001F21F4807140E80012002A8B
:10285000F5D12068143050E8001F21F0010140E854
:102860000012002AF5D12068143050E8001F21F032
:10287000400140E80012002AF5D184F83E3025637B
:1028800020680C3050E8001F21F0100140E80012D1
:10289000002AF5D1A06BFEF766FDA08DE18D401AF0
:1028A00081B229E0A08DE18D401A81B2E08D00282F
:1028B000A8D00029A6D020680C3050E8002F22F4C0
:1028C000907240E80026002EF5D12068143050E8C0
:1028D000002F22F0010240E80026002EF5D184F8F6
:1028E0003E30256320680C3050E8002F22F01002A3
:1028F00040E80023002BF5D12046FFF7C0FEF8BDCD
:10290000FFE705062BD5150629D594F83D002128AB
:10291000F5D1A068B0F5805F01D12069B0B1206A1F
:10292000411C2162216800784860E08C401E000450
:10293000000CE084E3D12068C16821F08001C1600F
:102940002068C16841F04001C160D8E7206A008872
:10295000C0F308004860206A801C2062E5E740065A
:10296000CDD55006CBD5CA68204622F04002CA60B9
:1029700084F83D3000F062F9C1E700003D430008F3
:1029800070B5040004D094F83D00002510B106E0B5
:10299000012070BD84F83C50204600F067F82420E8
:1029A00084F83D002068C16821F40051C1602046D0
:1029B00001F054FD2068016921F490410161206813
:1029C000416921F02A0141612068C16841F4005148
:1029D000C1602564202084F83D0084F83E0000207A
:1029E00070BD000010B51A4B01681A4A1A48994286
:1029F00009D1116821F4002111604FF44061FEF704
:102A000021FD34201EE0154B99420CD1116821F4B0
:102A1000801111609914FEF715FD04211048FEF78E
:102A200011FD35200EE00F4881420FD10948001DED
:102A3000016821F0100101604FF4C0610A48FEF7FF
:102A400001FD2520BDE81040FEF752BF10BD00007B
:102A5000004C004040380240000802400050004056
:102A6000000C02400010014000000240F0B587B0A9
:102A7000044614216846FDF74DFC4949474B22683E
:102A8000DFF81CC110390225012603240827454818
:102A90004FF0000E9A4221D1DCF8002042F40022CF
:102AA000CCF80020DCF8002002F4002205920A682D
:102AB00042F004020A60096801F004010591A102D4
:102AC0008DE86200CDE903476946FEF799FD0022D3
:102AD00005213420FEF72AFF342034E0324B9A429D
:102AE00035D1DCF8002042F48012CCF80020DCF86C
:102AF000002002F4801205920A6842F004020A6083
:102B00000A6802F0040205920A6842F008020A60AC
:102B1000096801F00801059199148DE86200CDE97A
:102B200003476946FEF76CFD04208DE86100CDE99E
:102B3000034769461D48FEF763FD00220521352045
:102B4000FEF7F4FE3520FEF7E4FE07B0F0BD1848AE
:102B50008242FAD11248001D026842F0100202605F
:102B6000006800F010000590086840F0010008605F
:102B70000868694600F0010005904FF4C0608DE8D8
:102B800021400720CDE903400A48FEF739FD002225
:102B900005212520FEF7CAFE2520D4E7004C004081
:102BA000403802400008024000500040000C024043
:102BB000001001400000024090F83E30202B0ED162
:102BC00059B152B190F83C30012B08D0012380F864
:102BD0003C300023036301F0C7BC01207047022092
:102BE0007047000070B5044600680F490F4D8842D9
:102BF00005F1080605D10E4B2A463146281D01F085
:102C0000B9F80C492068884205D1094B074A31467A
:102C1000281D01F0AFF808492068884203D1BDE8BB
:102C2000704002F087BC70BD00100140C84C00200D
:102C3000A800002000500040004C004070470000F9
:102C400010B500210F48FFF777FC00210E48FFF771
:102C500073FC00210D48FFF76FFC40F6B830FEF71B
:102C6000DFFB0621002003F085FC0821002003F093
:102C700081FC07494FF47A704863BDE81040642036
:102C8000FEF7CEBB50020020080200209802002070
:102C900000200040FEE700000022826590ED130A4C
:102CA000104B80ED070AB0F9141000EE101AB8EEC0
:102CB000C00AB0EEC00A10EE101A994210DCC16DC5
:102CC000491CC16532290ADBC2659FED070A012153
:102CD00080ED240A81650421016080ED070A7047B8
:102CE000C26570470000F0410000000070B592B06E
:102CF000002408260294B00103940C940A903A4DE3
:102D0000CDE90D46288B10AB010A8DF808108DF81F
:102D10000900B5F8B40002AA010A8DF80A108DF86E
:102D20000B00B5F85001010A8DF80C108DF80D005C
:102D3000B5F8EC01010A8DF80E108DF80F000AA904
:102D40002A48FDF7EDFE08B1FDF742FE019400941C
:102D50000694CDE907468DF8244040F2FF10049018
:102D600095F87402032827D0B5F88802010A8DF877
:102D700000108DF80100B5F82403010A8DF8021047
:102D80008DF80300B5F8C003010A8DF804108DF822
:102D90000500B5F85C0411AB010A8DF806108DF83A
:102DA00007006A4604A91148FDF7BAFE002801D0C1
:102DB000FDF70EFE12B070BDB5F87802010A8DF86D
:102DC00000108DF80100B5F81403010A8DF8021007
:102DD0008DF80300B5F8B003010A8DF804108DF8E2
:102DE0000500B5F84C04D6E7244D0020280100204A
:102DF000104810B50E4901600321416000214FF4D5
:102E000000228160C0E903124FF440124261017652
:102E1000012242768176C17601774177FEF7F3F899
:102E2000002803D0BDE81040FDF7D2BD10BD000062
:102E30000064004028010020104810B50E490160D0
:102E40000321416000214FF400228160C0E9031298
:102E50004FF4401242610176012242768176C176BA
:102E600001774177FEF7CFF8002803D0BDE8104086
:102E7000FDF7AEBD10BD000000680040500100200D
:102E800010B5114802F092FE104C0F4A002120614B
:102E9000903A0F4802F0BEFE0B4A20606C3A0021C7
:102EA0000C4802F0B7FE084A6060483A00210A4820
:102EB00002F0B0FE044AA060243A0021074802F064
:102EC000A9FEE06010BD0000E074000804000020CE
:102ED000FD3E0008C5390008F93400081743000812
:102EE00030B587B014216846FDF714FA274800244E
:102EF000016841F004010160016801F004010591DD
:102F0000016841F020010160016801F02001059194
:102F1000016841F080010160016801F080010591C4
:102F2000016841F001010160016801F001010591B2
:102F3000016841F002010160016801F002010591A0
:102F4000016841F0080101600068114D00F00800BF
:102F500005900720CDE9000401200290694628462B
:102F6000FEF74EFB80214FF48810CDE9001002944B
:102F700069462846FEF744FB002205211720FEF78C
:102F8000D5FC1720FEF7C5FC07B030BD3038024035
:102F90000014024010B588B01C216846FDF7BAF94C
:102FA00015481449002401605321C0E9011444F676
:102FB0001F61C0E9031480218161FEF7E9FF08B1B8
:102FC000FDF706FD0C48FFF788FA08B1FDF700FD94
:102FD0006020CDE90004029400226946064804946A
:102FE000FFF715FA08B1FDF7F3FC0348FFF7B0F956
:102FF00008B010BD004401400802002010B588B0A0
:103000001C216846FDF786F9154814490024016023
:103010005321C0E9011444F61F61C0E90314802163
:103020008161FEF7B5FF08B1FDF7D2FC0C48FFF750
:1030300054FA08B1FDF7CCFC6020CDE900040294FD
:103040000022694606480494FFF7E1F908B1FDF74C
:10305000BFFC0348FFF77CF908B010BD001C00401E
:103060005002002010B588B01C216846FDF752F9C7
:1030700015481449002401605321C0E9011444F6A5
:103080001F61C0E9031480218161FEF781FF08B14F
:10309000FDF79EFC0C48FFF720FA08B1FDF798FCFD
:1030A0006020CDE900040294002269460648049499
:1030B000FFF7ADF908B1FDF78BFC0348FFF748F9BE
:1030C00008B010BD002000409802002010B586B066
:1030D00000241748009401940294039404944FF040
:1030E0008041059401605321C0E9011442F210713E
:1030F000C0E9031480218161FEF74AFF08B1FDF7A2
:1031000067FC4FF48050009069460948FEF7FEFFC7
:1031100008B1FDF75DFC049404A905480594FEF789
:10312000EFFE002801D0FDF753FC06B010BD0000F3
:103130007801002010B58CB00024079408940994FD
:103140001C2168460A94FDF7E5F81A481849016001
:103150005321C0E9011444F61F61C0E90314802122
:103160008161FEF715FF08B1FDF732FC4FF4805086
:10317000079007A90F48FEF7C9FF08B1FDF728FC23
:103180000C48FFF7AAF908B1FDF722FC6020CDE951
:10319000000402940022694606480494FFF737F9B8
:1031A00008B1FDF715FC0348FFF7D2F80CB010BDCD
:1031B00000400140C00100200C4810B50A490160E0
:1031C0004FF4E1314160002181600C22C160C0E90F
:1031D00004128161C161FFF7D3FB002803D0BDE871
:1031E0001040FDF7F5BB10BD004C0040E002002090
:1031F0000C4810B50A4901604FF4E13141600021EB
:1032000081600C22C160C0E904128161C161FFF7D5
:10321000B7FB002803D0BDE81040FDF7D9BB10BDB7
:1032200000500040240300200C4810B50A490160FA
:103230004FF4E1314160002181600C22C160C0E99E
:1032400004128161C161FFF79BFB002803D0BDE838
:103250001040FDF7BDBB10BD001001406803002009
:10326000B4EEE00AF1EE10FA01DDB0EE600AF1EE24
:10327000600AB4EEE00AF1EE10FA01D2B0EE600A94
:103280007047FEE72DE9F05FDFF854B20025ABF59B
:1032900000762F46A6F59C6AC5EBC50000EB4519E4
:1032A0000AEB8904207905287ED05AF82910091FD5
:1032B00008292BD2DFE801F0040DBC112B836563D4
:1032C000B4F9140000EE100AF8EEC00A94ED070AF3
:1032D00018E0204601F0D6FAF2E7B4F91A00D4ED6E
:1032E000240A00EE100A0BEB85108046B8EEC00AE7
:1032F00000F0ACF9B4F9140000EE100AF8EEC00AC0
:1033000098ED0E0A06EB851000F026F990E0B4F96E
:10331000140000EE100A06EB85108046F8EEC00A95
:1033200094ED190A00F018F9B4F96C0000EE100AD7
:10333000F8EEC00A98ED0E0AFFF792FF88ED0E0A2C
:10334000B4F91400674900EE100AB8EEC00AB0EEF6
:10335000C00A10EE100A88420FDC606F401C6067E4
:103360000A2865DB0120C4E91C0704224AF8292049
:103370009FED5D0A84ED070A5AE0676758E02783EE
:1033800056E02046FFF788FCB4F9140000EE100A5E
:1033900006EB85108046F8EEC00A94ED070A00F0AF
:1033A000DBF8B4F9540000E046E000EE100AF8EE55
:1033B000C00A98ED0E0AFFF753FF88ED0E0A0BEBDB
:1033C0008510D4ED240A94ED1F0A804600F03EF9E2
:1033D000B4F9140000EE100A06EB8510F8EEC00AEE
:1033E00098ED0E0A804600F0B7F8B4F9840000EEBC
:1033F000100AF8EEC00A98ED0E0AFFF731FF88EDCB
:103400000E0AB4F91400374900EE100AB8EEC00AEB
:10341000B0EEC00A10EE100A884229DCD4F88C0005
:10342000401CC4F88C00322802DB0120C4E92207CA
:103430006D1C082DFFF630AF00210B245546C1EB63
:10344000C10000EB411255F82200062809D005EB17
:1034500082000379012B0ED0022B1FD0032B33D017
:10346000C782491C0829EADBBDE8F05FFFF73EBCD4
:10347000C4F88C70DCE7B0F9163043F2C82C634511
:1034800028DC06EB8112DFED190A92ED0E0A20EE20
:10349000200ADFED170A80EE201A0FE0B0F916308F
:1034A00040F63C7C634515DC06EB81129FED110A6A
:1034B000D2ED0E0A60EE800A80EE801ABDEEC10ADF
:1034C00010EE102A0283CCE7B0F9163040F63A0C21
:1034D000634502DD45F82240C3E70781C1E70000EC
:1034E000045400200000204100000000000080463D
:1034F00000409C4600401C4600F070FBFFF7C2FEF7
:10350000052002F017FBF7E70948012102220171AB
:1035100080F8A01080F83C1180F8D81180F874224F
:1035200080F8101380F8AC1380F84814704700003E
:10353000244D0020FEE7B4EEE00AF1EE10FA01DDC2
:10354000B0EE600AF1EE600AB4EEE00AF1EE10FAB5
:1035500001D2B0EE600A704730EE600A00B580ED2F
:10356000000AD0ED010A70EE600AC0ED050AD0ED48
:10357000080A20EE800AD0ED0B0AFFF7DCFFD0ED41
:10358000070A90ED051AB0EE002A00EE810AD0ED90
:10359000000A90ED021A70EE811A90ED011A41EEC8
:1035A000421A90ED092A02EE210AD0ED0E1A70EEB1
:1035B000211AC0ED0E1A90ED0C0AF4EEC01AF1EECD
:1035C00010FA01DD80ED0E0AD0ED0E1AB1EE400AC0
:1035D000F4EEC01AF1EE10FA01D280ED0E0AF5EE0B
:1035E000C00A80ED021AF1EE10FAC0ED010A01DC0A
:1035F000F1EE600A90ED060AF4EEC00AF1EE10FA60
:1036000003D29FED020A80ED0E0A00BD000000000B
:1036100080ED062AC0ED0C1A00F11C0181EC030AB2
:10362000B1EE610A80ED0D0A80ED0B3A9FED060ABE
:10363000C0ED0A2A80ED020A80ED010A80ED000A41
:1036400080ED0E0A704700000000000000B590F801
:103650003C1030EE600A012906D180ED010A80EDB0
:10366000020A002180F83C1080ED000AD0ED040A27
:1036700030EE801A80ED041AD0ED010A30EE600AB7
:1036800080ED050AD0ED080A20EE810AFFF753FF0E
:1036900090ED071AD0ED000AD0ED051A01EE200AD0
:1036A00090ED091A01EE210A80ED0E0A90ED0C1A38
:1036B000B4EEC10AF1EE10FA02DCB0EE401A01E0FD
:1036C00080ED0E1A90ED0D0AB4EEC01AF1EE10FA6C
:1036D00001D280ED0E0AF5EEC00AC0ED010AF1EE4E
:1036E00010FA01DCF1EE600A90ED060AF4EEC00A71
:1036F000F1EE10FA03D29FED020A80ED0E0A00BD32
:103700000000000010B52DED068B9FED629AB0EE23
:10371000493A9FED618AB2EE042AF0EE482ADFEDC5
:103720005F8AF0EE681ADFED5E9AF0EE000AB2EE04
:10373000080AB0EE691A5B48FFF76AFFB0EE493A33
:10374000F0EE482AB2EE042AF0EE681A9FED561AFF
:103750005448F7EE000AB2EE020A4030FFF758FF75
:103760005048B0EE493AF0EE482AB2EE042AF0EEA4
:10377000681AB0EE691AF1EE000AB2EE080A80305B
:10378000FFF746FFB0EE493AF0EE482AB2EE042ABF
:10379000F0EE681A9FED451A4248F0EE000AB2EECC
:1037A000020AC030FFF734FFB0EE493AF0EE482A83
:1037B000B2EE042ADFED3E1A9FED3E1ADFED3E0A1F
:1037C000B2EE080A3D48FFF723FFDFED3D8ADFED4B
:1037D0003D9A9FED3DAADFED3DAAB0EE493AF0EEED
:1037E000682AB0EE692AF0EE681AB0EE4A1AF0EED6
:1037F000480AB0EE6A0A3648FFF70AFF3448B0EECE
:10380000493AF0EE682AB0EE692AF0EE681AB0EE96
:103810004A1AF0EE480AB0EE6A0A4030FFF7F8FEA6
:103820002B48B0EE493AF0EE682AB0EE692AF0EE85
:10383000681AB0EE4A1AF0EE480AB0EE6A0A803012
:10384000FFF7E6FE2248B0EE493AF0EE682AB0EE05
:10385000692AF0EE681AB0EE4A1AF0EE480AB0EEA5
:103860006A0AC030FFF7D4FEB0EE493AF0EE682A9B
:10387000B0EE692AF0EE681AB0EE4A1AF0EE480A85
:10388000B0EE6A0ABDEC068BBDE810401148FFF7A8
:10389000BFBE00000000FA430000000000401C46CC
:1038A000CDCC4C3E04520020666606409A99993E63
:1038B00000409C45CDCCCC3D8FC2753C04530020CC
:1038C00000C0DA45CDCC4C3D0AD7233C33332341ED
:1038D000045400200455002070B59FED350A90F87F
:1038E0009420418A2AB10279012A08D0022A0BD1F8
:1038F00008E0A0F89610012180F8941070BDB3EE96
:10390000030A01E09FED2B0AB0F91420DFED2A0A2B
:10391000002A9FED2A1A2A4BB0F8962041F6FF7430
:103920001CDB9142A1EB020204D2224440F2E244A9
:10393000A2420BDA01EE902AF8EEE11A81EEA02AFB
:1039400062EE010A80EE801A83ED001A93ED000A00
:10395000B5EEC00AF1EE10FA1EDC23E0914224D944
:10396000641A04F2E145154440F6C216B5420CD87B
:10397000224401EE902AF8EEE11A81EEA02A62EECE
:10398000010A80EE801A83ED001A93ED000AB5EE6D
:10399000C00AF1EE10FA05D2D0ED240A30EE800A0A
:1039A00080ED240AA0F8961070BD8A1AE1E70000A5
:1039B000000000000000104200F8FF450000B44382
:1039C000DC00002008B50C4C01250095D4ED991AB7
:1039D00094ED721AD4ED4B0A94ED240AB4F9E8314F
:1039E000B4F94C21B4F9B010B4F9140000F034FE6D
:1039F0000A2002F09FF8E8E7244D00202DE9F0416D
:103A00005B4E2DED028B3089A0F56170C82803D87C
:103A100000F09CF957A065E05AA001F07DFF708985
:103A20000027A0F5AF6101245A4DC8297DD8214651
:103A30006C70594CB0EE088A58A084ED118A84ED60
:103A4000108A84ED0F8A84F8301084F8311001F068
:103A500063FF2878012802D15248FEF711FE2F702B
:103A6000F089A0F26C70C82842D8B7EE000A84ED45
:103A7000110AB6EE000A84ED100A84ED0F0AB0892F
:103A8000A0F2B63164290CD8002001F091FD062186
:103A90000A2002F06FFD08210A2002F06BFD42A00F
:103AA00020E0A0F2AA50642810D8022001F080FD86
:103AB0000921002002F05EFD0621002002F05AFDDF
:103AC0000821002002F056FD3AA00BE0012001F091
:103AD0006FFD0621002002F04DFD0821002002F0BC
:103AE00049FD38A0BDEC028BBDE8F04101F014BFE8
:103AF000B1EE000A84ED110A84ED100A84ED0F8AFC
:103B0000B089A0F29E714B2901D9A0F2B6300420F1
:103B100001F04EFD0621002002F02CFDBDEC028BD1
:103B20000821BDE8F041002000E001E002F022BDE4
:103B3000A0F26C70C82814D86878012802D100F06F
:103B400005F96F70287820B9012221491548FFF73F
:103B500033F820A001F0E0FE2C70BDEC028BBDE834
:103B6000F081BDEC028BBDE8F04100F0EFB8000041
:103B7000A8560020726F626F742073746F700D0A04
:103B800000000000726F626F742073746172740DB4
:103B90000A000000F2000020C84C002068616E643A
:103BA0000D0A00006803002054414B455F42414C20
:103BB0004C0D0A005448524F575F42414C4C0D0A7D
:103BC00000000000534156455F42414C4C0D0A0035
:103BD000A90000206174756F0D0A000010B5FCF794
:103BE000F9FEBDE8104000F001B8000070B54E4D80
:103BF0002DED048B95ED0E0A9FED4C9A60EE090AAF
:103C0000DFED4B8A80EEA80A10EE100AFCF78DFB60
:103C100041EC100B00F05CFF51EC100BFCF798FB33
:103C200095ED0E0A08EE100A60EE090A80EEA80A69
:103C300010EE100AFCF779FB41EC100B00F0ACFF22
:103C400051EC100BFCF784FB00EE100A95F83100E4
:103C500001280FD1D5ED030A95ED041A60EE881AFC
:103C600041EE401A20EE800A01EE080AC5ED011A65
:103C700085ED020AD5ED010A9FED2E1AD5ED021A47
:103C800095ED050A20EE813A9FED2B2ADFED2B2AD8
:103C90002D4E01EEC13A002400EE023A63EE223AC4
:103CA0009FED273A83EE834ADFED263A61EEA33A91
:103CB00061EE811A40EEC13A40EE023A85ED084AC3
:103CC00063EEA23A83EE834AF0EE613A40EE811A47
:103CD00040EEC13A40EE021A40EE023A21EEA20A4C
:103CE00063EEA23A85ED094AC0EE030A83EE834AE9
:103CF00085ED0A4AC5ED0B0A05EB840090ED080A34
:103D0000BDEEC00A10EE100A01B2C4EBC40000EB15
:103D1000441006EB800000F0E7F8641C042CEBDB99
:103D2000BDEC048B70BD0000C84C0020DA0F494088
:103D300000003443E604353FEE7CBF3E00800E4475
:103D4000C57D743EE60435BF244D0020084910B5FA
:103D5000002081F83000042001F02AFC0621002018
:103D600002F008FC0821BDE81040002002F002BC6F
:103D7000C84C00202DE9F05F90468A4681469B465C
:103D800001224B494B48FEF717FF012248494A4898
:103D9000FEF712FF464C494D641E4FF0000C60794F
:103DA000112809D0E0780121C0B101281BD00228D8
:103DB00029D0032879D13FE06078AA2801D020716A
:103DC00073E02079552870D184F805C02870AA20A6
:103DD000687084F803C084F802C066E06078A87058
:103DE0006081E17061E0B4F9060061782A18401C36
:103DF000D17000B2E080B4F90A10884255DBA4F813
:103E000006C0022016E0B4F90A0061782A18C01C26
:103E1000D170C1B2294802F095FBA070B4F90A1024
:103E20002944C978814203D025A001F075FD3CE00A
:103E3000E078401CE07038E0B4F9080010B10128C7
:103E400002D032E0218130E0194BA4F808C01733CA
:103E50001E1D371DB4F908002918CA781A54CA79EA
:103E60003254C97A3954401C00B220810428F1DB55
:103E700093ED000A112089ED000A96ED000A8AED03
:103E8000000A97ED000A88ED000AE97B8BF8001024
:103E900084F803C084F804C0607184F802C0A4F8F8
:103EA0000AC0A4F806C0A4F808C00020BDE8F09F2E
:103EB000A90000206803002024030020104D0020EA
:103EC00052656365697665642074656D5F617272C1
:103ED000617920636865636B2073756D206572720C
:103EE0006F72210D0A00000000EE101A0422026019
:103EF000B8EEC00A80ED070A704700000A4C0BA01C
:103F0000218801F009FD61880CA001F005FDE18820
:103F10000EA001F001FDA18810A001F0FDFC3220EF
:103F200001F008FEEBE70000A85600204C4546547F
:103F30005F58203D2025640D0A0000004C45465482
:103F40005F59203D2025640D0A0000005249474872
:103F5000545F58203D2025640D0A0000524947480F
:103F6000545F59203D2025640D0A000010B54FF024
:103F7000E020006903F0BCF8012803D0BDE8104040
:103F800002F0AEBD10BD000030B593B030216846E0
:103F9000FCF7C0F914210CA8FCF7BCF91D4800255A
:103FA000016841F080510160006800F0805011907C
:103FB0001948016841F4804101600068022400F45E
:103FC0008040119001200090000401908001CDE913
:103FD000064008AA0420A82182E813000B90684636
:103FE000FDF7E0FD08B172B6FEE70CA90F2081E8ED
:103FF00031004FF4A0500F904FF4805010900521E5
:104000000CA8FDF7C5FC002801D072B6FEE713B07E
:1040100030BD000040380240007000400248016896
:1040200041F470010160704788ED00E00148FEF73F
:10403000DCB80000780100200148FEF7D6B8000087
:10404000AC030020F0B50268254D264E264FDFF860
:104050009CC0274B4FF0804EA84209D0704507D036
:10406000B04205D0B84203D0604501D0984203D198
:1040700022F070044A682243A8421BD0704519D030
:10408000B04217D0B84215D0604513D0984211D035
:10409000184CA0420ED0184CA0420BD0174CA04296
:1040A00008D0174CA04205D0164CA04202D0164CA6
:1040B000A04203D122F44074CA6822434C6922F022
:1040C0008002224302608A68C2620A688262A84251
:1040D00001D0984201D10969016301214161F0BD1C
:1040E000000001400004004000080040000C0040B7
:1040F00000040140004001400044014000480140EC
:1041000000180040001C00400020004010B501F0E5
:104110001F010123046A8B409C430462036A8A40A6
:104120001343036210BD10B5846842EA032224F4ED
:104130007F440A432243826010BD826822F07002ED
:104140000A4342F00701816070470000F0B5026A3F
:1041500022F001020262026A43688469114E24F06F
:1041600073050C68104F2C4322F002058A682A431D
:10417000B04201D0B84205D122F00805CA682A43EE
:1041800022F00402B04201D0B84205D14D6923F4B7
:1041900040731D438B692B434360846149684163CD
:1041A0000262F0BD0000014000040140F0B5026A67
:1041B00022F010020262026A436884690D6824F4E6
:1041C000E64444EA05248D6822F0200242EA051202
:1041D0000F4D104EA84201D0B04206D1CF6822F058
:1041E000800242EA071222F04002A84201D0B04207
:1041F00007D14D6923F4406343EA85038D6943EA9F
:10420000850343608461496881630262F0BD0000F8
:104210000000014000040140F0B5026A22F48072FF
:104220000262026A4368C46922F4007224F07305D2
:104230000C68124E2C438D6842EA05220E4DA842AE
:1042400001D0B04206D1CF6822F4006242EA0722D0
:1042500022F48062A84201D0B04207D14D6923F414
:10426000405343EA05138D6943EA05134360C46173
:104270004968C1630262F0BD0000014000040140D2
:1042800030B5026A22F480520262036A4268C4694D
:104290000D6824F4E64444EA05248D6823F40053B1
:1042A00043EA0533084DA84202D0084DA84204D184
:1042B0004D6922F4804242EA85124260C461496835
:1042C0000164036230BD00000000014000040140B1
:1042D00010B5046A036A23F001030362836923F0C3
:1042E000F00343EA021324F00A020A4383610262E4
:1042F00010BD10B5036A23F0100303628469036ADA
:1043000024F4704444EA023223F0A00343EA01118A
:104310008261016210BDFFF771FB052001F00AFC0C
:10432000F9E700000148FEF7F7B90000E0020020BD
:104330000148FEF7F1B900002403002010B5806B9E
:104340000021C185C184FEF7E5F910BD01680C317B
:1043500051E8002F22F4907241E80023002BF5D1A0
:104360000168143151E8002F22F0010241E80023D6
:10437000002BF5D1016B012909D101680C3151E8FD
:10438000002F22F0100241E80023002BF5D120215C
:1043900080F83E1000210163704708B590F83E1088
:1043A000222901D0022008BD81684FF48053994230
:1043B00001D1026922B1826A99421BD049B10AE057
:1043C0000268816A5268C2F308020A80816A891C05
:1043D00008E0016971B10168496801F07F0111705D
:1043E000816A491C8162C18D491E0904090CC1857D
:1043F00003D019E001684968F1E70168CA6822F052
:104400002002CA600168CA6822F48072CA6001682A
:104410004A6922F001024A61202180F83E10016BB6
:10442000012903D0FEF7DEFB002008BD0021016357
:1044300001680C3151E8002F22F0100241E80023FE
:10444000002BF5D101680A68D20602D50A684968CE
:104450000091818DFEF713F9E6E7000070B5044680
:1044600000680169E26821F4405111430161A168CB
:104470002069E26901436069104301432068C26812
:1044800049F20C639A430A43C26020684169A269F9
:1044900021F440711143416131492068884202D0C2
:1044A0003049884202D1FDF73DFB01E0FDF72AFBD0
:1044B000E2690023192164253226B2F5004F6268B3
:1044C00028D0A0FB0101930F9200FBF7D9FE014613
:1044D000B0FBF5F06FF01802504301EB800006EBE3
:1044E0000010B0FBF5F000F0F002B1FBF5F002EBCC
:1044F0000012B1FBF5F06FF01803584301EB800098
:1045000006EB0010B0FBF5F000F00F00216810443E
:10451000886070BDA0FB010192185B41FBF7B0FE03
:104520000146B0FBF5F00201B1FBF5F06FF01803A6
:10453000584301EB800006EBC000B0FBF5F000F043
:10454000F80002EB4002B1FBF5F0584301EB8000AC
:1045500006EBC000B0FBF5F000F00700D6E7000066
:10456000001001400014014081628285C285002153
:104570000164222280F83E2080F83C10016921B1BC
:104580000168CA6842F48072CA6001684A6942F0F0
:1045900001024A610068C16841F02001C160002049
:1045A000704700000148FEF7B7B80000680300201C
:1045B00030B5084D6B6907E014682406FCD510F887
:1045C000014B54605B1C6B618B42F5DB0020686122
:1045D00030BD0000A80000201C49D1ED031AC1ED38
:1045E000061A91ED040A81ED070AD0ED000AC1ED2B
:1045F000000A90ED011A81ED011A90ED021A81ED89
:10460000021A90ED032A81ED032A90ED041A72EE4E
:10461000611A81ED041AD0ED052A31EE400AC1ED90
:10462000052AC1ED081A81ED090A91ED0A1A084818
:1046300031EE211A81ED0A1A91ED0B1A31EE000AC2
:1046400081ED0B0AC0ED0E0A70470000BC56002039
:10465000C84C0020FEE700002DE9F04F0D462DED7F
:10466000048B89B00746F0EE619AB0EE419AF0EE05
:10467000608AB0EE408A1C46164620216846FBF749
:1046800049FE2F4BDFF8BCA003F102081F80A8F8F9
:1046900000501D1D9A1D2E8002F112061480371D38
:1046A00086ED008A02F11A0CC7ED008A02F11E099C
:1046B0008CED009AC9ED009A00206C461AF80010A3
:1046C0002154401C0228F9DB1921C2468DF8021042
:1046D00000209B46904622181BF80030D3701AF831
:1046E000003053712B5CD37118F80030401C5372AA
:1046F0000228F0DB00202218335CD3723B5CD373BA
:104700001CF80030D37419F80030401CD37504280D
:10471000F1DB0C441698A0706846C91C01F012FF2A
:10472000E0700D2020710A206071074A1F21684641
:10473000FFF73EFF09B0BDEC048BBDE8F08F000031
:10474000B4000020087500080010014000B58BB0CF
:1047500000200121CDE90601059000900190029012
:10476000039004900E20CDE9081069460E48FCF72E
:104770003BFA08B1FCF72CF90B48FCF7C2FD08B175
:10478000FCF726F901210848FCF7B8F908B1FCF755
:104790001FF902210448FCF7B1F9002801D0FCF709
:1047A00017F90BB000BD00002801002000B58BB048
:1047B0000F20059000200121CDE906010090019015
:1047C0000290039004900E20CDE9081069460E482F
:1047D000FCF70AFA08B1FCF7FBF80B48FCF791FD6F
:1047E00008B1FCF7F5F802210748FCF787F908B192
:1047F000FCF7EEF801210448FCF780F9002801D00D
:10480000FCF7E6F80BB000BD5001002010B50446DF
:10481000807820B994ED060A607801F047F8A07816
:10482000012804D194ED070A607800F0F1FFA07828
:10483000022804D194ED080A607801F003F8A0780A
:10484000032806D194ED050A6078BDE8104001F018
:1048500013B810BD0A48042165220170427080F827
:104860002410662280F8252080F84810672280F8FE
:10487000492080F86C10682180F86D1070470000A6
:104880000456002010B504462DED028B4FF07E51EA
:10489000D0ED0F2A12EE900A9FED768A884218DC3E
:1048A000F5EEC02AF1EE10FA13D394ED103A13EEA0
:1048B000100A88420DDCB5EEC03AF1EE10FA08D3CA
:1048C00094ED0D2A94ED0C1AB4EEC12AF1EE10FA13
:1048D00004D284ED078ABDEC028B10BD94ED0A0A68
:1048E000D4ED0B0AB4EE600AF1EE10FA04D121EE19
:1048F000020A84ED070AEEE770EEC01AF5EEC01A60
:10490000F1EE10FA01DC70EE601AB0EE004AF4EE3F
:10491000C00A62EEA12A23EE213A71EEE23A62EE7B
:10492000845A73EEC34A62EE023A23EE043A41EE31
:10493000413A83EEA55AD4ED0E3A63EEA33AB0EEB7
:10494000636A02EE426AC6EE035AF1EE10FA06DD21
:1049500094ED243AB4EEC03AF1EE10FA23D3F4EE1B
:10496000C00AF1EE10FA06D294ED243AB4EEC03A41
:10497000F1EE10FA17DCF4EEC00AF1EE10FA06DDE3
:1049800094ED243AB4EEE03AF1EE10FA0BDCF4EEDA
:10499000C00AF1EE10FA09D294ED243AB4EEE03AEE
:1049A000F1EE10FA02D284ED071A3CE094ED243ABD
:1049B00073EE400AF5EEC00AF1EE10FA01DC70EE7B
:1049C000430AF4EEE20AF1EE10FA08D221EE010AEF
:1049D00025EE041A01EE200A10EE100A18E032EE5D
:1049E000A40AB4EEE00AF1EE10FA02DD84ED072A23
:1049F00019E031EEE00A25EE841AB5EEC00AF1EEB8
:104A000010FA01DC30EEE10A41EE403A13EE900A72
:104A1000FBF78BFC41EC100B00F022F951EC100B72
:104A2000FBF796FCE06194ED0B0AD4ED0A0AB4EEB4
:104A3000E00AF1EE10FA05D2D4ED070AF1EE600AB1
:104A4000C4ED070AD4ED240A0B4930EEC00AB0EEDB
:104A5000C00A10EE100A884203DA0120606484ED77
:104A6000078A10EE100A88427FF745AF0020606485
:104A700031E70000000000000000404003B401984E
:104A80004100009850EAC12018BF04204A0D18BF09
:104A900040F0010040F2FF72B2EB515F08BF40F0FE
:104AA0000200012808BF052002B070470907090E5F
:104AB000002804DB00F1E02080F80014704700F0CB
:104AC0000F0000F1E02080F8141D70470000000086
:104AD00010B52F499FED2C1B2DED020B84B00598CE
:104AE00020F000408842D8BF9DED040B2DDD294900
:104AF000884209D1049840B94FF0010000F014FD3C
:104B000000F0E2FC06B010BD05DB9DED040B00F0EB
:104B1000CFFC06B010BD68469DED040B00F0E0F838
:104B200010F0030004BF9DED021B9DED000B0CD0A7
:104B300001280ED09DED021B9DED000B022817D021
:104B4000012000F01DFC06B010BD00F0E5FA06B033
:104B500010BD9DED021B9DED000B012000F010FC2F
:104B600051EC100B81F0004106B041EC100B10BD70
:104B700000F0D2FA51EC100B81F0004106B041EC8C
:104B8000100B10BD0000000000000000000000003D
:104B9000FB21E93F0000F07F10B52F499FED2C1B52
:104BA0002DED020B84B0059820F000408842DCBF58
:104BB00000209DED040B32DD2849884209D104987C
:104BC00040B94FF0010000F0AFFC00F07DFC06B0F2
:104BD00010BD05DB9DED040B00F06AFC06B010BDB6
:104BE00068469DED040B00F07BF810F0030011D037
:104BF000012818D09DED021B9DED000B02281AD054
:104C000000F08AFA51EC100B81F0004106B041EC43
:104C1000100B10BD9DED021B9DED000B012000F05F
:104C2000AFFB06B010BD9DED021B9DED000B00F02B
:104C300073FA06B010BD012000F0A2FB51EC100B7E
:104C400081F0004106B041EC100B10BD00000000E7
:104C50000000000000000000FB21E93F0000F07FA1
:104C600000B52DED048BB0EE409AF0EE609A83B063
:104C700051EC190BFBF7DEFB41EC180B18EE100A98
:104C800018EE901A8DED008B002818BF0120084304
:104C900020F00040C0F17F6000F1E040C00F14D070
:104CA00019EE101A19EE900A8DED009B002918BF1D
:104CB0000121084320F00040C0F17F6000F1E04096
:104CC000C00F04BF012000F02FFCB0EE480A03B073
:104CD000F0EE680ABDEC048B00BD0000000000008F
:104CE0002DE9F14F04462DED020B2DED088B8AB016
:104CF0009FEDE70B80ED020B139EE74826F0004581
:104D000085420ADC9DED120B002084ED000B0AB0F9
:104D1000BDEC088B03B0BDE8F08FE0489FEDE0AB41
:104D20009FEDE1BBA84247DDE14F9FEDE39B9FED87
:104D3000E48B9DED120B53EC1A2B51EC100B002E53
:104D40001CDDFBF7D9FC41EC100BBD4208D053EC45
:104D50001B2B51EC100BFBF7CFFCC4E900010BE05F
:104D600053EC192B51EC100BFBF7C6FC53EC182B32
:104D7000FBF7C2FCC4E900010120C8E7FBF71BFCFC
:104D800041EC100BBD4208D053EC1B2B51EC100B27
:104D9000FBF711FCC4E900010BE053EC192B51ECBB
:104DA000100BFBF708FC53EC182BFBF704FCC4E9D1
:104DB00000014FF0FF30AAE7C348A84279DB9DED20
:104DC000120B51EC100B00F0ADFD41EC180B9FEDF8
:104DD000C00B53EC102BFBF795FC9FEDBF1B53EC66
:104DE000112BFBF7E8FBFBF78CFD0746FBF76BFD90
:104DF00041EC190B53EC1A2BFBF784FC53EC182BEA
:104E0000FBF77DFC41EC180B53EC1B2B51EC190B01
:104E1000FBF778FCDFF8C8A241EC100B4FEA1558FD
:104E20000125FA4453EC102B51EC180BFBF764FCF2
:104E3000032DC4E900013DD0C1F30A5005EB451133
:104E4000A8EB00001139814234DA0AEB051BB0EE01
:104E500048AA9BED000BF0EE68AA53EC102B51EC26
:104E6000190BFBF74FFC41EC1B0B51EC1A0B53ECED
:104E70001B2BFBF741FC41EC180B51EC1A0B53ECCC
:104E8000182BFBF739FC53EC1B2BFBF735FC9BED88
:104E9000020B41EC1A0B53EC102B51EC190BFBF7E6
:104EA00031FC53EC1A2BFBF727FC41EC100B6D1C6B
:104EB000B8E70EE0002EA8BF3846BFF628AF94ED45
:104EC000000B51EC100B81F00041C4E90001784265
:104ED0001DE7C6F3130040F4801EC6F30A50A0F28B
:104EE000F530471100F01F05C5F12000DDF848B08E
:104EF00008900020069007900520EC467949002D87
:104F000007EB0002794408BF51F8221009D051F88C
:104F1000223001EB8201AB404A68089922FA01F184
:104F20001943A1FB0E26A1FB0B131A449A4234BF6E
:104F30000123002303EB06080CEB8003D3E901A651
:104F40000E448E4234BF0121002192448A4411B1A3
:104F5000924502D903E0924501D2012100E00021EF
:104F6000C3E901A641444CF82010011EA0F1010044
:104F7000C4DC029800F10050850F0298DDE9036758
:104F80008000DDF81480FBF79EFC41EC1A0B3046E4
:104F9000FBF7AAFC9FED541B53EC112BFBF7B2FB64
:104FA00041EC1B0B3846FBF79FFC9FED511B53EC6C
:104FB000112BFBF7A7FB41EC180B4046FBF794FCC9
:104FC0009FED4D1B53EC112BFBF79CFB41EC190B98
:104FD00051EC180B53EC192BFBF7EDFA53EC1B2B90
:104FE000FBF7E9FA53EC1A2BFBF7E5FACDE90801D8
:104FF000002008909DED080B53EC1A2B51EC100B80
:10500000FBF77AFB53EC1B2BFBF776FB53EC182BCF
:10501000FBF772FB53EC192BFBF771FB9FED381B71
:1050200053EC112BFBF76EFB9FED370B41EC180B8C
:1050300053EC102B9DED080B51EC100BFBF762FBB2
:1050400053EC182BFBF7B7FA9FED310B41EC180B23
:1050500053EC102B9DED080B51EC100BFBF752FBA2
:1050600053EC182BFBF7A7FA41EC100B139810F038
:10507000004F06D06D4251EC100B81F0004141EC25
:10508000100B284684ED000B41E6000000000000F4
:105090000000000000000000FB21E93F7CD9024035
:1050A00000004054FB21F93F3163621A61B4D03DE6
:1050B000FB21F93F000000000000601A61B4D03D00
:1050C0007370032E8A19A33BFB21394100000000B5
:1050D00083C8C96D305FE43F000000000000E03F7E
:1050E0001A27000068260000000000000000103EA3
:1050F000000000000000103C000000000000103A1A
:10510000182D4454FB21F93D3326A611460B113CC2
:1051100000000054FB21F93D10B52DED040B2DEDE1
:10512000088B82B0B0EE419AF0EE619A0B9820F0B5
:1051300000449FED4BABB4F1795F11DA9DED0A0BA2
:1051400051EC100BFBF7DDFB002801BFB0EE4A0A63
:10515000F0EE6A0A02B0BDEC088B04BF04B010BDCB
:105160009DED0A0B53EC102B51EC100BFBF7CAFA18
:1051700041EC180B3C480621B0EE480AF0EE680AF4
:10518000784400F081F853EC182B51EC100BFBF72E
:10519000B9FA9DED0A0B41EC1B0B53EC192B51ECAA
:1051A000100BFBF7AFFA41EC190B53EC1B2B51EC36
:1051B000180BFBF7A7FA53EC192BFBF79DFA9FEDA1
:1051C0002C0B41EC190B53EC102B51EC180BFBF78B
:1051D00099FA41EC100B2848844210DA53EC192B51
:1051E00051EC100BFBF788FA53EC1A2BFBF787FAFC
:1051F00041EC100B02B0BDEC088B04B010BD1F4891
:10520000A042BCBF9FED1E1B8DED001B06DBA4F56D
:1052100000100190002000909DED001B51EC100B40
:1052200053EC112BFBF768FA9DED000B41EC180BCA
:1052300053EC102B51EC1A0BFBF75EFA41EC1A0BF6
:1052400053EC192B51EC180BFBF756FA53EC1A2BB5
:10525000FBF755FA41EC100BCCE700000000000012
:10526000000000000000F03F8C2300000000000060
:10527000000000000000E03F3333D33F0000E93F6F
:10528000000000000000D23F70B504462DED028BF7
:105290004D1E00EBC500B0EE408AF0EE608A90ED46
:1052A000000B35F0060017D053EC182B51EC100B07
:1052B000FBF728FA41EC100B6D1E04EBC50090EDD6
:1052C000001B51EC100B53EC112BFBF774F941EC64
:1052D000100B35F00600E7D1022D36D0042D1CD07E
:1052E000062D1CBFBDEC028B70BD53EC182B51EC8E
:1052F000100BFBF707FA94ED0A1B53EC112BFBF78D
:105300005AF953EC182BFBF7FDF994ED081B53ECFD
:10531000112BFBF750F941EC100B53EC182B51EC0F
:10532000100BFBF7EFF994ED061B53EC112BFBF779
:1053300042F953EC182BFBF7E5F994ED040B53EC11
:10534000102BFBF738F941EC100B53EC182B51ECF8
:10535000100BFBF7D7F994ED021B53EC112BFBF765
:105360002AF953EC182BFBF7CDF994ED001B53EC05
:10537000112BFBF720F9BDEC028B41EC100B70BD3B
:1053800031B504462DED040B2DED0A8BB0EE41BA7C
:10539000F0EE61BA0B989DED0A0B20F00040B0F1E1
:1053A000795F0DDA51EC100BFFF768FB042808BF9A
:1053B00000F09AF89DED0A0BBDEC0A8B05B030BDEC
:1053C00053EC102B51EC100BFBF79CF941EC180B34
:1053D0009DED0A0B53EC182B51EC100BFBF792F9D7
:1053E00041EC190B2C48B0EE480AF0EE680A052192
:1053F0007844FFF749FF9FED2ACBB0EE40AAF0EECC
:1054000060AA9CB353EC1C2B51EC190BFBF77AF9F7
:1054100041EC1C0B53EC1A2B51EC190BFBF772F9F6
:105420009FED210B41EC190B53EC102B51EC1B0B96
:10543000FBF768F953EC192BFBF75EF953EC182BCB
:10544000FBF760F953EC1B2BFBF756F953EC1C2BC5
:10545000FBF752F99DED0A1B53EC112BFBF74FF9AB
:10546000BDEC0A8B05B041EC100B30BDFFE753ECEF
:105470001A2B51EC180BFBF745F953EC1C2BFBF7DF
:105480009AF853EC192BFBF73DF99DED0A1B53ECF1
:10549000112BFBF790F8E3E7142200000000000056
:1054A000495555555555C5BF000000000000E03F67
:1054B00010B553EC102B51EC100BFBF77CF841ECC2
:1054C000100B10BD000000009FED050B10B553EC54
:1054D000102B51EC100BFBF787F941EC100B10BDB2
:1054E00000000000000000009FED050B10B553EC1C
:1054F000102B51EC100BFBF705F941EC100B10BD14
:10550000000000000000001002E008C8121F08C1DF
:10551000002AFAD170477047002001E001C1121F34
:10552000002AFBD170470000014908607047000065
:105530002401002010B501221A491B48FDF73CFB4D
:10554000184A0023507805282AD2DFE800F0030823
:10555000121E230010780D280AD1012007E01078D0
:105560000A2802D00D2803D01AE093700220507050
:1055700010BD0E4C907811782154401CC0B2907030
:105580001828F5D393700320F1E710780A2807D183
:105590000420ECE710780D2802D10448FFF71CF82E
:1055A000537010BD20010020E0020020EC560020C6
:1055B0002DE9F0413D4C3C4F00252DED028B04F1CF
:1055C00024069FED388A052819D2DFE800F05B0336
:1055D0005B1D5B00012038609FED358AA57084ED6E
:1055E000068A3248FFF712F984F8265084ED0F8AB4
:1055F0003046FFF70BF909210A2000F0BBFFBDEC94
:10560000028B0020BDE8F0813868012828D1A57000
:1056100084ED068A2548FFF7F9F884F8265084EDD2
:105620000F8A3046FFF7F2F80921002000F0A2FFB0
:105630004FF47A70FBF7F4FE3D609FED1E8AA57073
:1056400084ED068A1948FFF7E1F884F8265084EDC6
:105650000F8A3046FFF7DAF840F2DC50FBF7E0FE45
:105660009FED158AA57084ED068A1048FFF7CEF8E5
:1056700084F8265084ED0F8A3046FFF7C7F80921D9
:105680001E20BAE7A57084ED068A0848FFF7BEF829
:1056900084F8265084ED0F8A3046FFF7B7F80921C9
:1056A0000020AAE7000000001C0100200456002092
:1056B0000060EA4500401CC600606A4630B51368C9
:1056C0000D0E5C1C1460C55413680D0C5C1C14603A
:1056D000C55413680D0A5C1C1460C55413685C1C27
:1056E0001460C15430BD0A681044921C00880A60DE
:1056F00040BA00B270470A681318C01C1B68105CDF
:105700001BBA23F0FF031843121D0A6070470A6892
:105710001318C01C1B68105C1BBA23F0FF0318434E
:10572000121D0A607047000038B540680023C0F3BE
:105730000F220D46C4B2B2EE042A0F2A2AD004DC8E
:10574000092A07D00E2A52D124E0102A2CD01B2A75
:105750004DD143E0694628460093FFF7D8FF00EE9D
:10576000900A69462846F8EE600AFFF7BCFF01EE92
:10577000100A69462846F8EEC11A81EE821AFFF730
:10578000B2FF01EE900ADFED1F2AB8EEE12AC2EE69
:10579000221A2CE0694628460093FFF7ACFF6946C1
:1057A0002846FFF7A8FF22E0694628460093FFF746
:1057B0009AFF69462846FFF796FF69462846FFF795
:1057C00092FF69462846FFF78EFF00EE100ADFEDD4
:1057D0000E2AB8EEC02A82EE220A08E06946284660
:1057E0000093FFF788FF69462846FFF77CFF0748CC
:1057F00004EBC40100EB8100A0F5636080EC040AB7
:1058000038BD000000007A440000484204560020E1
:10581000DFED0B0A1CB520EE200A044600200090A4
:10582000BDEEC00A6A4601A810EE101AFFF746FF47
:10583000009801A9C2B244F4807000F04BF81CBD7E
:1058400000007A44DFED0B0A1CB520EE200A044666
:1058500000200090BDEEC00A6A4601A810EE101AA2
:10586000FFF72CFF009801A9C2B2204600F032F8E1
:105870001CBD00000050C347DFED0B0A1CB520EE35
:10588000200A044600200090BDEEC00A6A4601A826
:1058900010EE101AFFF712FF009801A9C2B244F4EB
:1058A000806000F017F81CBD002474491CB5044644
:1058B000BDEEC00A002000906A4610EE101A01A842
:1058C000FFF7FCFE009801A9C2B244F4407000F05A
:1058D00001F81CBD10B588B00C46082104910021C8
:1058E00003910421CDE9010102E00120FBF798FDBD
:1058F0000848FBF774FA0028F7D006AB2246694641
:105900000448FBF70DF9002801D0FBF761F808B057
:1059100010BD0000500100200148FDF763B80000F1
:105920002403002082B0CDE9000121F00040019065
:105930009DED000B02B051EC100B704702685B4804
:10594000A2F20122082A0ED2DFE802F0040E192684
:10595000335271900A8852BA42824A8852BA82827D
:10596000898849BAC18270470A8852BA20F8AE2F96
:105970004A8852BA4280898849BA818070470A8829
:1059800052BAA0F84A214A8852BAA0F84C21898814
:1059900049BAA0F84E1170470A8852BAA0F8E62119
:1059A0004A8852BAA0F8E821898849BAA0F8EA11D1
:1059B000704790F87422032A0A8852BA0AD0A0F8D5
:1059C00082224A8852BAA0F88422898849BAA0F86B
:1059D00086127047A0F87A224A8852BAA0F87C2230
:1059E0008A8852BAA0F87E228979A0F87A12704784
:1059F00090F81023032A0A8852BA0AD0A0F81E236E
:105A00004A8852BAA0F82023898849BAA0F82213FC
:105A10007047A0F816234A8852BAA0F818238A883B
:105A200052BAA0F81A238979A0F81613704790F893
:105A3000AC23032A0A8852BA0AD0A0F8BA234A88AB
:105A400052BAA0F8BC23898849BAA0F8BE1370479F
:105A5000A0F8B2234A8852BAA0F8B4238A8852BA6E
:105A6000A0F8B6238979A0F8B213704790F84824BB
:105A7000032A0A8852BA0AD0A0F856244A8852BA91
:105A8000A0F85824898849BAA0F85A147047A0F899
:105A90004E244A8852BAA0F850248A8852BAA0F8F4
:105AA00052248979A0F84E1470470000244D00203C
:105AB000FBF79CFEFEF768FAFDF712FAFDF798F97E
:105AC000FDF7BAF9FDF7B0FBFDF700FBFDF790FB22
:105AD000FDF760FAFDF792FAFDF72CFBFDF7C2FA2D
